:020000022000DC
:1070000000000220757302005D7302005F730200CE
:1070100061730200637302006573020000000000E8
:107020000000000000000000000000006773020084
:1070300069730200000000006B7302006D730200B0
:10704000D5C002006F73020061CE0200A5E102000C
:107050006F7302006F73020059CD0200BDCF0200B2
:107060006F7302006F7302006F7302006F73020090
:107070006F7302006F7302006F7302006F73020080
:107080006F730200A19D02006F7302006F73020014
:107090006F730200DD210300D92703006F73020024
:1070A0006F7302006F7302006F7302006F73020050
:1070B0006F7302006F730200000000000000000008
:1070C0006F7302006F7302006F7302006F73020030
:1070D0006F7302006F7302006F7302006F73020020
:1070E0006F730200000000000000000000000000BC
:1070F000000000006F730200000000006F730200C8
:10710000000000000000000000000000000000007F
:10711000000000000000000000000000000000006F
:10712000000000000000000000000000000000005F
:10713000000000000000000000000000000000004F
:10714000000000000000000000000000000000003F
:10715000000000000000000000000000000000002F
:10716000000000000000000000000000000000001F
:10717000000000000000000000000000000000000F
:1071800000000000000000000000000000000000FF
:1071900000000000000000000000000000000000EF
:1071A00000000000000000000000000000000000DF
:1071B00000000000000000000000000000000000CF
:1071C00000000000000000000000000000000000BF
:1071D00000000000000000000000000000000000AF
:1071E000000000000000000000000000000000009F
:1071F000000000000000000000000000000000008F
:10720000354936480A1A02D0072291438D4634493F
:1072100034480A1A06D00722914381F309880222D2
:1072200082F3148830483149314A00F044F831483B
:107230003149324A00F03FF831483249324A00F0D1
:107240003AF832483249334A00F035F83248334987
:10725000334A00F030F833483349344A00F02BF811
:1072600033483449344A00F026F83448344900227F
:1072700000F02CF833483449002200F027F8334856
:107280003349091A082902DB002202604160314AB1
:1072900090471F481F49884205D00268043003B454
:1072A000904703BCF7E700208646EC46002000210B
:1072B000294A9047FEE7884207D0521A05D0037842
:1072C00001300B700131013AF9D17047884202D088
:1072D00002700130FAE770470000022000F8012038
:1072E0000000022000000220C84C03007842002069
:1072F00058530020D0730200D0730200AA2E03005E
:10730000C84C03007842002078420020982F0300E8
:10731000982F0300982F0300982F0300982F030045
:10732000982F0300982F0300982F0300C64C0300EA
:10733000A85D0300585300205853002058530020E4
:1073400020600020206000202060002020600020BD
:10735000206800209D730200C1EE0200FEE7FEE7F8
:10736000FEE7FEE7FEE7FEE7FEE7FEE7FEE7FEE7F5
:1073700000F002B8FFF7FCBF0F484FF00701884349
:1073800085460E4880470E48016841F4700101604F
:10739000BFF34F8FBFF36F8FFFF732BF09480A4922
:1073A0000A4A884207D0521A05D0037801300B7080
:1073B0000131013AF9D1704700000220F1B5020015
:1073C00088ED00E0982F03007842002078420020EA
:1073D00000B585B00190019B002B0AD0074B43F00C
:1073E00001030393019B9B010293039B029898471F
:1073F00000E000BF05B05DF804FB00BFB02F030044
:1074000000B583B00190019B002B0AD04FF47A7035
:10741000FFF7DEFF019B013B0193019B002BF5D1A0
:1074200000E000BF03B05DF804FB08B508F0DCFD28
:1074300000BF08BD00B589B0039002910192019B85
:10744000002B33D00023079303230693029A079B54
:107450001344019A1946002008F076FD0590079A1A
:10746000059B13440793019A059BD31A0193059B2F
:10747000002B13D10F4B1B7883F00103DBB2002BE1
:1074800013D10120FFF7BCFF069B013B0693069B2F
:10749000002B03D1074B00221A7007E0054B012295
:1074A0001A70019B002BD1D100E000BF00BF09B0D2
:1074B0005DF804FB5853002000B585B0039002919D
:1074C000054B00934023054A0299039800F012F8F7
:1074D00000BF05B05DF804FB357402005C5300206A
:1074E00082B0019000BF02B0704782B0019000BF2F
:1074F00002B0704700B5A1B00590049103920293C9
:10750000049803F0C5FB039B1593029B169300237D
:10751000179300238DF8603000231993229B1A9350
:1075200000231F930FA91F9B0822049803F08AFCD5
:1075300008231F93119B1293BDF84030ADF84C30D7
:10754000BDF84230ADF84E3000238DF851309DF833
:107550003C3003F00303DBB2012B26D10F9BC3F3B6
:1075600095231C939DF83C30C3F3C203DBB28DF826
:107570005030BDF83C30C3F38313DBB21B931B9B2D
:107580009A0009A91F9B049803F05CFC1B9B9B00BD
:107590001F9A13441F9312AA09A915AB009313460F
:1075A0001B9A1C9800F0CAFE2FE09DF83C3003F0B7
:1075B0000303DBB2022B28D1BDF83E30C3F389139D
:1075C0009BB21E939DF83C30C3F3C203DBB28DF82F
:1075D00050301E9B082B28BF08231D9307A91F9B13
:1075E0001D9A049803F02EFC1F9A1D9B13441F93B1
:1075F0001E9A1D9BD31A1E9315AB12AA07A81D999C
:1076000000F03EFF1E9B002BE3D1049803F04FFBDC
:1076100000BF21B05DF804FB82B00190019BDB68E4
:1076200001225A7100BF02B07047000000B583B05C
:107630004FF0FF330193FFF7F8FE0421084800F0F4
:1076400099FD0190019B002B03DA0649412007F0C8
:107650004BF80348FFF7E0FF00BF03B05DF804FB01
:10766000882F0300C82F030000B583B0019000915C
:10767000019B1B681B6800990198984700BF03B0E5
:107680005DF804FB00B583B00190019B1B685B684B
:107690000198984700BF03B05DF804FB00B583B0C4
:1076A0000190019B1B689B680198984700BF03B03D
:1076B0005DF804FB82B001900B468DF80330019B0E
:1076C000DB689DF803201A7100BF02B0704782B0DA
:1076D0000190019BDB681B79184602B0704782B0AD
:1076E0000190019BDB6801225A7100BF02B0704714
:1076F00082B00190019BDB685B79184602B070474D
:1077000000B585B0019000910C4B00221A700C4816
:1077100003F022FA0390039B002B01D0039B08E0A7
:10772000084803F07FFD084A084BD31ADB08029390
:107730000023184605B05DF804FB00BF0455002087
:107740002C2F0300243003002C2F0300B42E030041
:10775000024A034BD31ADB08184670472C2F03004C
:10776000B42E030000B587B001900B468DF80330AE
:107770009DF80330002B1FD0FFF7EAFF0490002391
:10778000059313E0059B9B000E4A13440393039B50
:107790001B881A46019B1B689A4204D1019B059ADB
:1077A0001A60002309E0059B01330593059A049BA9
:1077B0009A42E7D3052300E00023184607B05DF89E
:1077C00004FB00BF7842002000B585B001900B4655
:1077D0008DF803309DF8032001AB11461846FFF7E2
:1077E000C1FF0346002B07D1019BDB00054A134470
:1077F0000393039B1B6800E00023184605B05DF867
:1078000004FB00BFB42E030084B001900B468DF83A
:107810000330019BDB00174A134402939DF80330A9
:10782000013B032B1CD801A252F823F03D78020043
:10783000457802004D7802005778020002238DF847
:107840000F3011E004238DF80F300DE0029B1B79FF
:107850008DF80F3008E0029B5B798DF80F3003E064
:1078600000238DF80F3000BF9DF80F30184604B08C
:10787000704700BFB42E030084B001900091002334
:107880008DF80F30019B1B7803F00403DBB2002B53
:1078900024D0019B1B78C3F30103DBB2012B02D080
:1078A000022B0CD017E0009B1B68019A1288C2F3D0
:1078B0008312D2B213449A1C009B1A600BE0009B07
:1078C0001B68019A5288C2F3891292B213449A1C1F
:1078D000009B1A6000BF01238DF80F309DF80F3018
:1078E000184604B07047000000B58BB00023ADF817
:1078F00026303E4802F03CFC3D4802F039FC3D4B4E
:107900009B6804933C4B1B680693049A069B1340A8
:1079100002339B00374A13440433089304AB1946DF
:107920000898FFF7A9FF0346002B09D0049A069B8D
:10793000134002339B002F4A134404330893EDE7AE
:1079400000BF0023079311E0049B5A1C0492069A7F
:107950001340079A920001A90A44264902339B006A
:107960000B445B681360079B01330793079B012B54
:10797000EAD99DF80430C3F30103DBB2012B10D028
:10798000022B1CD1BDF80A30ADF82630BDF8063008
:10799000C3F389139BB203339A08049B13440493E3
:1079A00013E0BDF80A30ADF82630BDF80430C3F35B
:1079B0008313DBB21A46049B1344049305E00F497A
:1079C0004FF4C27006F090FE00BF094802F0DCFBE5
:1079D0000590059B002B02D0049B064A9360BDF8DE
:1079E000263018460BB05DF804FB00BF1C59002080
:1079F0001859002004550020804200203430030034
:107A000000B585B00021074802F023FB0390039BDB
:107A10000293029B83F310030193019B184605B068
:107A20005DF804FB2059002000B589B00390029155
:107A300001920093039B1B0C0793FFF7E1FF069055
:107A4000FFF786FE0246079B934204D3214940F28A
:107A5000A91006F049FE069B1904009B5A1C0A9BBC
:107A60001340079A0A431C4902339B000B445A6097
:107A7000009A0A9B134002339B00174A13440433B5
:107A80000593039B03F00703D9B2059A137861F3BA
:107A9000C5031370019B03F00F03D9B2059A138835
:107AA00061F389131380029BC3F31501059A1368D0
:107AB00061F39F231360059A1378012161F3010399
:107AC0001370059A13786FF38203137000BF09B027
:107AD0005DF804FB343003000455002000B58DB080
:107AE0000390029113468DF80730039B02330A93EB
:107AF00001238DF8273000238DF81B300DF11B0377
:107B0000184601F021FD404B5A68029B1A603F4B1A
:107B10001A683D4B99683C4B5B68CB1A13440133A0
:107B20000B9314E001213A4802F0F2FAFFF7DCFE71
:107B300007900799364802F0EBFA344B1A68324B3B
:107B40009968314B5B68CB1A134401330B930A9A43
:107B50000B9B9A42E6D89DF82730002B48D0002393
:107B600005939DF80730002B17D09DF814300122A3
:107B700062F301038DF814309DF8143043F00403D0
:107B80008DF81430039B03F00F03DAB2BDF8143004
:107B900062F38913ADF8143016E09DF81430022218
:107BA00062F301038DF814309DF8143043F00403A0
:107BB0008DF81430039BC3F309039AB2BDF8163055
:107BC00062F38F13ADF816300F4B5A680F4B1B68DA
:107BD000134002339B000C4A134404330893059A64
:107BE000089B1A60084B5A680A9B1344064A536064
:107BF0009DF81B30184601F0BDFC9DF82730184653
:107C00000DB05DF804FB00BF045500208042002049
:107C10002059002000B58BB0059004910392029387
:107C20001F4B1B68079306AB012219460298FFF70A
:107C300055FF0346002B24D0069B023309930023F3
:107C4000089311E0089B9B00039A1A44099B591C56
:107C5000099107990B401268124902339B000B44AB
:107C60005A60089B01330893089A029B9A42E9D311
:107C7000069A079B00931346029A04990598FFF70A
:107C8000D3FE084B1B78002B05D000BF00F068F82E
:107C90000346002BFAD100BF0BB05DF804FB00BF18
:107CA000804200200455002000B583B0019000916F
:107CB0000023002200990198FFF7ACFF00BF03B03A
:107CC0005DF804FB00B587B0039002910192019B1F
:107CD000059305AA012302990398FFF79BFF00BFB4
:107CE00007B05DF804FB00B587B0039002910192E4
:107CF0000093019B0493009B059304AA022302991D
:107D00000398FFF787FF00BF07B05DF804FB00B5DD
:107D10008BB00390029101920093019B0593009B0D
:107D200006930C9B07930D9B08930E9B099305AA42
:107D3000052302990398FFF76DFF00BF0BB05DF8B4
:107D400004FB0000054B9A68044B5B689A420CBF29
:107D500001230023DBB21846704700BF0455002002
:107D600000B599B0FFF7EEFF0346002B01D00023CA
:107D7000C0E19B4B0022C3F81824BFF34F8F00BF14
:107D8000974B9B680493974B1B681093049A109B26
:107D9000134002339B00924A13440433119300238F
:107DA00017930023169300230F9304AB19461198E1
:107DB000FFF762FD0346002B19D0894BD3F8183426
:107DC000002B14D1864B5A68049B9A4205D8844BE9
:107DD0005B68834A936000238CE1049A109B1340F4
:107DE00002339B007E4A134404331193DDE70023E2
:107DF000159311E0049B5A1C0492109A1340159A93
:107E0000920001A90A44764902339B000B445B6847
:107E10001360159B01331593159B012BEAD99DF82F
:107E2000043003F00303DBB2022B40F09C80BDF86A
:107E30000630C3F389139BB20D93BDF80630C3F32C
:107E400089139BB2502B28BF50239BB20C930C9BE1
:107E5000C3F309039AB2BDF8063062F38F13ADF88D
:107E600006300C9B08330B939DF80430C3F3C20318
:107E7000DBB20F930B995C4802F079FE1790179BC9
:107E8000002B00F0D380179802F002FF01A9169B87
:107E90000822179802F0B8FF169B08331693049B2C
:107EA000DA43109B134001339B000A930C9A0A9B00
:107EB0009A4242D90A9B002B08D0049A109B134087
:107EC00002339B00464A1344043300E0474B0893B7
:107ED0000A9B002B02D00A9BDBB201E00C9BDBB2B9
:107EE0008DF81F300A9B002B01D0404B00E000238F
:107EF00006930A9B002B06D00C9BDAB20A9BDBB2DE
:107F0000D31ADBB200E000238DF817309DF81F2054
:107F1000169B0899179802F077FF9DF81F30169A64
:107F200013441693069B002B16D09DF81720169B22
:107F30000699179802F068FF0EE0049A109B134010
:107F400002339B00264A134404330993169B0C9A70
:107F50000999179802F058FF0D9B03339A08049B68
:107F60001344049362E09DF8043003F00303DBB292
:107F7000012B5BD1BDF80430C3F38313DBB2062BB6
:107F800028BF0623DAB2BDF8043062F38913ADF8D6
:107F90000430BDF80430C3F38313DBB202330E9315
:107FA0009DF80430C3F3C203DBB20F930E9B9B001A
:107FB00019460D4802F0DBFD1790179B002B35D0BA
:107FC000179802F065FE01A9169B0822179802F087
:107FD0001BFF169B08331693002315931DE000BF6B
:107FE00004550020804200202C2F03001055002053
:107FF000049B5A1C0492109A134002339B003F4A80
:108000001344191D169B0422179802F0FDFE169BBF
:1080100004331693159B01331593BDF80430C3F355
:108020008313DBB21A46159B9342E1D3179B002BB7
:1080300040D0324BD3F810341493304BD3F818346B
:10804000002B1BD0179802F032FE4DE000238DF874
:108050004F301498FFF74CFB0346002B02D001234E
:108060008DF84F309DF84F30002B03D0179914989E
:10807000FFF7FAFA149BDB681B681493149B002B20
:10808000E4D1179802F013FE00238DF803300DF1B0
:108090000303184601F058FA184BD3F81834002B94
:1080A00002D1049B154A93609DF80330184601F0F5
:1080B00061FA19E0114BD3F81034129306E01298CC
:1080C000FFF7ECFA129BDB681B681293129B002BE4
:1080D000F5D10B4A0B4BD31ADB081B0443F0020308
:1080E00009491846FFF7E0FDFFF72CFE034683F031
:1080F0000103DBB2184619B05DF804FB04550020FB
:10810000DC2E0300B42E03008830030000B585B0D8
:108110000023039323E0164BD3F81034029301237A
:108120008DF807300FE00298FFF7D1FA03461A46A0
:10813000039B934203D100238DF8073006E0029B96
:10814000DB681B680293029B002BECD19DF8073083
:10815000002B01D0039B07E0039B01330393039B98
:10816000092BD8DD4FF0FF33184605B05DF804FB4E
:108170000455002000B585B001900B468DF8033002
:10818000FFF7C4FF0390039BB3F1FF3F01D1039BB3
:1081900022E0039BDBB219460198FFF78BFA104BE4
:1081A000D3F81034002B08D10D4A019BC2F81034CB
:1081B000019BDB6800221A600DE0094BD3F81034F4
:1081C000DA68019BDB6812681A60054BD3F810343B
:1081D000DB68019A1A60039B184605B05DF804FB42
:1081E0000455002000B583B00C4BD3F81034019334
:1081F0000A4B01221A7009E00198FFF770FA019802
:10820000FFF740FA019BDB681B680193019B002B81
:10821000F2D100BF00BF03B05DF804FB045500209D
:1082200082B00190009100BF02B0704710B584B0D9
:1082300003900291039BDB88002B0AD0039BDB8811
:108240001A461F4B009313461E4A1F49029802F01C
:10825000D7F8039B1B7A052B2ED0039B5B7A002B50
:1082600012D0039B9B881A46039B1B7A1946104623
:10827000FFF7CAFA03461A46144B53F822301A463F
:108280001349029802F0BCF8039B1B681946029838
:10829000FFF7C6FF039B1B7A1A460E4B53F822408A
:1082A000039B9B8800211846FFF78EFA034622465F
:1082B0000949029802F0A4F800BF04B010BD00BF45
:1082C000BC300300CC30030004310300984200208E
:1082D0001C310300844200202031030000B585B02A
:1082E0000390029113468DF80730039B1B7A052BF0
:1082F0000FD0039B5B7A002B06D00D4B1B681A46F0
:108300000C49029802F07CF80B49029802F078F8C8
:1083100007E09DF80730002B03D00749029802F0D0
:108320006FF8029802F04AF800BF05B05DF804FB50
:10833000984200201C3103002C31030030B58BB073
:1083400007900691059204930E9B1B7B8DF82730B6
:108350000E9B00221A730E990498FFF767FF059B86
:10836000062B7FD801A252F823F000BF89830200B8
:1083700093830200A3830200B7830200D583020027
:10838000FD8302002D84020007990E9802F038F850
:1083900069E0069B1B681A4607990E9802F030F8B0
:1083A00061E0069B1A68069B04331B6807990E98C8
:1083B00002F026F857E0069B1A68069B04331968FA
:1083C000069B08331B6800930B4607990E9802F032
:1083D00017F848E0069B1968069B04331868069B4B
:1083E00008331B68069A0C32126801920093034608
:1083F0000A4607990E9802F003F834E0069B1868C5
:10840000069B04331C68069B08331B68069A0C32D3
:10841000126806991031096802910192009323466F
:10842000024607990E9801F0EBFF1CE0069B1C68C2
:10843000069B04331D68069B08331B68069A0C32A2
:108440001268069910310968069814300068039084
:108450000291019200932B46224607990E9801F053
:10846000CFFF00E000BF00220E990498FFF736FF0F
:108470000E9B9DF827201A7300BF0BB030BD00BFC4
:1084800000B587B00390029101920093029B082BE4
:1084900060D8009B1B7B8DF81330009B00221A7361
:1084A00000990198FFF7C2FE0023059314E0059A96
:1084B000029B9A4209D2039A059B13441B781A46E1
:1084C0002649009801F09CFF03E02549009801F03F
:1084D00097FF059B01330593059B072BE7D921499E
:1084E000009801F08DFF0023059326E0059A029B7A
:1084F0009A421BD2039A059B13441B788DF81230C5
:108500009DF812307E2B0AD89DF8123018460AF0DA
:1085100019FC0346002B02D09DF8123000E02E23F8
:108520001A461149009801F06BFF03E00F490098CB
:1085300001F066FF059B01330593059B072BD5D9F9
:10854000012200990198FFF7C9FE009B9DF81320B6
:108550001A7300E000BF07B05DF804FB3031030080
:10856000383103003C310300403103004431030043
:1085700084B003468DF807309DF807305B08DBB206
:108580001A460D4B9B5C8DF80F309DF8073003F0B9
:108590000103002B04D09DF80F301B09DBB204E06F
:1085A0009DF80F3003F00F03DBB28DF80E309DF80D
:1085B0000E30184604B070475859002084B0034666
:1085C0000A468DF8073013468DF806309DF80730BF
:1085D00003F00103002B01D00F2300E0F0238DF8FE
:1085E0000F309DF8073003F00103002B04D09DF8F5
:1085F00006301B01DBB201E09DF806308DF80E302D
:108600009DF807305B08DBB21A46114B9A5C9DF867
:1086100007305B08DBB219469DF80F301340DAB221
:108620000B4B5A549DF807305B08DBB21A46084BD7
:108630009A5C9DF807305B08DBB219469DF80E3056
:108640001343DAB2024B5A5400BF04B0704700BF64
:108650005859002000B585B003468DF80730002337
:10866000039310E00F4B1A68039BDB001344029343
:10867000029B1B789DF807209A4201D1029B0DE0D6
:10868000039B01330393084B1B781A46039B9342C9
:10869000E8DB0649882006F027F80023184605B0D5
:1086A0005DF804FB245900202859002054310300B0
:1086B00000B585B003460A468DF8073013468DF89D
:1086C00006309DF807301846FFF7C4FF0390039B60
:1086D000002B0BD0039B5B68002B07D0039B5B68D0
:1086E0009DF806109DF807201046984700BF05B07A
:1086F0005DF804FB2DE9F04F87B003460A468DF87C
:108700000F3013468DF80E309DF80F301846FFF7E6
:108710002FFF0346042B00F2C28001A252F823F07F
:1087200035870200A9870200C5870200F58702008D
:108730000B8802009DF80E30002B00F0AD809DF8F4
:108740000F3001211846FFF739FF00238DF817304D
:108750000DF11703184600F0F7FE9DF80F104FF0CB
:1087600001024FF00003A1F12004C1F1200003FA3F
:1087700001F702FA04F4274322FA00F0074302FA51
:1087800001F6494BD3E9002346EA020100913B433D
:108790000193454BDDE90012C3E900129DF8173043
:1087A000184600F0E7FE77E09DF80E30002B01D070
:1087B000022200E000229DF80F3011461846FFF714
:1087C000FDFE6CE09DF80E30002B0CD09DF80F30B4
:1087D00003211846FFF7F2FE9DF80F3001211846DD
:1087E000FFF766FF5BE09DF80F3001211846FFF7A9
:1087F000E5FE54E09DF80E30002B4FD19DF80F3070
:1088000004211846FFF7DAFE48E09DF80E30002BF1
:1088100006D09DF80F3003211846FFF7CFFE3EE04B
:108820009DF80F3000211846FFF7C8FE9DF80F3065
:1088300000211846FFF73CFF00238DF816300DF19C
:108840001603184600F080FE9DF80F104FF001024D
:108850004FF00003A1F12006C1F1200003FA01F559
:1088600002FA06F6354322FA00F0054302FA01F453
:108870006FEA04086FEA05090B4BD3E9002308EA05
:10888000020A09EA030B084BC3E900AB9DF8163056
:10889000184600F06FFE02E000BF00E000BF00BF1E
:1088A00007B0BDE8F08F00BF5059002000B583B07D
:1088B0000648074B1B685B080022194600F066FD5E
:1088C000019000BF03B05DF804FB00BF30590020E9
:1088D0002C59002000B587B001900023059328E0B3
:1088E0001C4B1A68059BDB0013440493049B1B7804
:1088F000184604F081F903468DF80F30049B5B782D
:10890000012B0CBF01230023DBB21A469DF80F3068
:108910009A420CBF012300238DF80E30049B1B7874
:108920009DF80E2011461846FFF7E4FE059B013323
:108930000593094B1B781A46059B9342D0DB074BE6
:10894000D3E90023134301D0FFF7B0FF00BF07B006
:108950005DF804FB245900202859002050590020BC
:1089600000B585B001900B468DF80330019BDBB25A
:108970001846FFF76FFE0390039B1B78184604F020
:108980003BF903468DF80B30039B5B78012B0CBF42
:1089900001230023DBB21A469DF80B309A420CBF2C
:1089A000012300238DF80A309DF80A30002B06D0F1
:1089B000054BD3E90023134301D1FFF777FF00BF35
:1089C00005B05DF804FB00BF5059002000B58BB026
:1089D00003900B4601928DF80B30019B092B01D8B7
:1089E000072367E003F0FCFF034683F00103DBB2DB
:1089F000002B09D003F090FF0990099B0893089B76
:108A0000002B01D0089B55E02C4A039B13602C4A95
:108A10009DF80B3013702B4A019B1360202200211C
:108A200029480AF0BDF929494FF000024FF0000330
:108A3000C1E9002331E09DF80B30DB00039A1344B9
:108A4000079303238DF8143000238DF815309DF81B
:108A500016306FF300038DF816309DF816306FF363
:108A600041038DF816309DF816306FF382038DF8B0
:108A70001630079B9B788DF81530079B1B7818469E
:108A800005AB134A194603F0B7FF0990099B0693FB
:108A9000069B002B01D0069B0CE09DF80B305A1E64
:108AA0008DF80B20002BC6D10A4A00210A4800F09D
:108AB00039FC034618460BB05DF804FB245900202E
:108AC000285900202C5900205859002050590020C6
:108AD00061890200D5880200A031030000B583B08F
:108AE000114B1B68002B04D1104940F2351005F0E2
:108AF000FBFD002301930CE00B4B1A68019BDB008C
:108B000013441B780121184603F0F2FF019B013347
:108B10000193074B1B781A46019B9342ECD3002329
:108B2000184603B05DF804FB2459002054310300BB
:108B30002859002086B003900291019201238DF8FC
:108B400017309DF81730204A039B13601E4A029B82
:108B500053601D4A019B9360039B44F201029342C0
:108B600012D0039B44F20202934220D1019B164A89
:108B7000D360154BDB681B68134A9361124BDB68AB
:108B80005B68114AD36112E0019B0F4A13610E4BDF
:108B90001B699B680C4A53610B4B1B691B680A4A93
:108BA0009361094B1B695B68074AD36100BF72B6CA
:108BB00000BF00BF9DF81730DBB2002BFAD162B6C0
:108BC00000BF00BF06B070477859002000B583B0E1
:108BD00002900091019244F2010071466A4600F051
:108BE00003F803B000BD00BF30B58BB0079006910D
:108BF000059272B600BFFFF7F5FA00BFFFF7B0F8B5
:108C00000346002BFAD1079B44F2020293422FD075
:108C1000079B44F20202934269D8079B44F2010287
:108C2000934237D0079B44F2010293425FD8079BDF
:108C3000012B05D0079B41F2010293420CD056E074
:108C4000394A3A4BD31ADB081B0443F00103384975
:108C50001846FFF729F857E0334A344BD31ADB089C
:108C60001B0443F0010333491846FFF71DF84BE09E
:108C7000059B09932C4A2D4BD31ADB081B0443F0A8
:108C80000100099B5B681A46099B1B682A49FFF78C
:108C90002AF839E0059B0893234A244BD31ADB08B2
:108CA0001B0443F00104089B9D68089B9B681846C1
:108CB00002F0D8FB03461846089B5B681946089BE0
:108CC0001B68069A02920193009103462A461B49AB
:108CD0002046FFF71CF8144A144BD31ADB081B0478
:108CE00043F0010316491846FEF7DEFF0CE00E4A7A
:108CF0000E4BD31ADB081B0443F00103069A1149FB
:108D00001846FEF7DFFF00BF0F4B1B6803F001039F
:108D1000002B00D000BE059A06990798FFF70AFFBE
:108D200000BF0BB030BD00BFDC2E0300B42E03002B
:108D3000A4310300C4310300E8310300043203000E
:108D40002C32030040320300F0ED00E02DE9F04347
:108D500083B0144801F009F8034600221C4615466A
:108D6000114BD3E9002314EB020845EB0309CDE9CD
:108D700000890E4BD3E90023DDE90001904271EB3D
:108D8000030307D2DDE9002312F1807643F10007E7
:108D9000CDE90067DDE900231046194603B0BDE8C0
:108DA000F08300BFBC420020A0590020A859002039
:108DB00088B001900091019B0793009B0693079B4D
:108DC000D3E90223CDE90423069BD3E90223CDE9AD
:108DD0000223DDE90423DDE90201904271EB030384
:108DE0002CBF01230023DBB2184608B070470000F7
:108DF000F0B585B00190019B5B69002B03D12B4935
:108E0000A22005F071FC00238DF80F30284B1B7851
:108E1000002B45D0019B002B42D0019B1B7FDBB276
:108E2000002B3DD0FFF792FF019BD3E90223904234
:108E300071EB03032CD3019B1B69002B02D1019B17
:108E400000221A77019B5B69019A92691046984744
:108E5000019B1B69002B23D0019B1B7FDBB2002BE6
:108E60001ED0019BD3E902230199096900200C4619
:108E70000546161943EB0507019BC3E90267019BF1
:108E800019460C4802F048FA01238DF80F3007E02C
:108E9000019B1946074802F03FFA01238DF80F3075
:108EA0009DF80F30184605B0F0BD00BF64320300D6
:108EB0009C590020B4320300F0B589B001900091B4
:108EC0000D230793009B00221A70019BD3E90245F2
:108ED000FFF73CFF02460B46A61A65EB0307CDE9F8
:108EE0000467DDE90423012A73F100031BDB049B03
:108EF000B3F5350F05D300F0A9FA0246154B13441C
:108F000003E0019BD3E90223134603934FF4960336
:108F1000039A0021104800F01BFE0790079B002BCE
:108F200005D1012313E000210B4800F0E9FE079B67
:108F30000D2B07D10198FFF75BFF03461A46009BF4
:108F40001A7003E00549F52005F0CEFB0023184612
:108F500009B0F0BDFFFFB400BC4200206432030042
:108F600000B583B0044802F011FA0190019B184645
:108F700003B05DF804FB00BFB432030000B583B05A
:108F8000044802F025FA0190019B184603B05DF8F1
:108F900004FB00BFB432030000B583B0FFF7E0FF6D
:108FA0000190019B002B02D0019B00221A77019BAC
:108FB000002BF3D100BF00BF03B05DF804FB00003D
:108FC000054BD3E9002312F1807043F10001024BFD
:108FD000C3E9000100BF7047A059002010B582B05E
:108FE0000190124B1B68002B1DD0019800F0BDFEB4
:108FF00004460021019800F0A9FE034619462046C8
:1090000000F018FA0346B3F5960F04D308494FF45D
:10901000957005F069FB054B1B681846FFF7E8FEE5
:10902000024B00221A6000BF02B010BD9859002008
:109030006432030000B583B00190FFF787FE02465B
:109040000B460349C1E9002300BF03B05DF804FBF0
:10905000A859002000B585B00190FFF78FFF03905D
:1090600000238DF80B30039B002B48D02B4B1B6843
:10907000002B03D101238DF80B3019E0039BD3E9BA
:109080000201264B1B68D3E90223904271EB0303D4
:109090000ED201238DF80B30204B1B681B7FDBB2F7
:1090A000002B05D01D4B1B6819461D4802F034F9F2
:1090B0009DF80B30002B2AD0FFF752FF03900DF1E3
:1090C0000A0319460398FFF7F7FE0346002B12D058
:1090D000124B1B68002B02D1019800F045FC0F4A8F
:1090E000039B13609DF80A3083F00103DBB2002B71
:1090F000B3D000BF0EE0094B00221A60ADE7074B6A
:109100001B68002B05D1019800F044FC01E000BF72
:1091100000E000BF00BF05B05DF804FB98590020D7
:10912000B432030000B587B001902C4A03AB194656
:10913000104600F018FF059048E0059B1B78022BB5
:109140002ED0022B32DC002B02D0012B14D02DE0CC
:10915000059B5B681B7FDBB283F00103DBB2002B56
:1091600026D0059B5B6801221A77059B5B68194630
:109170001B4802F0D1F81BE0059B5A68194B1B688D
:109180009A4203D1174B00221A6012E0059B5B68DC
:109190001946134802F030F903468DF8133008E001
:1091A000FFF7FAFE104B01221A7002E000BF00E048
:1091B00000BF0A4A03AB1946104600F0EDFE074A0D
:1091C00003AB1946104600F0CEFE0590059B002B20
:1091D000B3D100BF00BF07B05DF804FB085A002000
:1091E000B4320300985900209C59002000B583B088
:1091F0000190019800F077FD0346002B01D0FFF7A6
:10920000DFFE0021019800F08CFD0346002B02D008
:109210000198FFF7E3FE0121019800F082FD03466B
:10922000002B02D00198FFF705FF0198FFF77AFFA6
:109230000198FFF70FFF00BF03B05DF804FB0000CB
:1092400008B5024800F09EFD00BF08BDBC420020EA
:1092500000B585B0034600918DF80730114A02AB86
:109260001946104600F052FE0390039B002B13D0CA
:10927000039B9DF807201A70039B009A5A60094AC5
:1092800002AB1946104600F05AFE0346002B01D0EF
:10929000FFF7D6FF002300E00423184605B05DF871
:1092A00004FB00BF085A002000B583B0164B1B68B2
:1092B0000093164808235822154900F0F4FD019048
:1092C000019B002B01D0019B19E06B46114A194606
:1092D000114800F0CBFA0190019B002B01D0019BBB
:1092E0000DE001210C4800F0EDFC01230B4A0121A7
:1092F000094800F065FB0A4B01221A70019B1846D1
:1093000003B05DF804FB00BFB0320300085A002030
:10931000B0590020ED910200BC420020FFFF7F0009
:109320009C59002000B587B003900B4601928DF840
:109330000B30039B002B04D1134940F22E2005F083
:10934000D3F9019B002B04D10F4940F22F2005F0E7
:10935000CBF9019B002B01D1072310E0039B1B6875
:109360000593059B019A5A619DF80B30012B0CBFA8
:1093700001230023DBB21A46059B1A61002318461D
:1093800007B05DF804FB00BF64320300F0B587B09E
:10939000039002910192039B002B04D1164940F2E5
:1093A0003E2005F0A1F9039B0593059B1B7FDBB2D3
:1093B000002B01D000231CE0059B019A9A61FFF766
:1093C000C5FC02460B46029900200C4605461619BC
:1093D00043EB0507059BC3E90267059B1B69002B4F
:1093E00002D0059B029A1A6105990020FFF730FF11
:1093F0000346184607B0F0BD6432030000B585B0DF
:109400000190019B002B04D109494FF4157005F020
:109410006BF9019B0393039B00221A7703990120A8
:10942000FFF716FF0346184605B05DF804FB00BFC2
:109430006432030082B001900091019A009BD31A1C
:1094400023F07F43184602B07047000008B5034878
:1094500000F08BFC0346184608BD00BFBC4200204C
:1094600082B0EFF310830093009B019372B600BFAC
:10947000019B184602B0704762B600BF00BF70473C
:1094800000B585B00190FFF7EBFF0390164B9B688A
:10949000002B1BD1144B01229A60144BD3F880206F
:1094A000134B1340104A1360104B114AC3F880202D
:1094B0000E4BD3F884300C4A53600C4B4FF0FF3204
:1094C000C3F88420019B00221A7002E0019B012254
:1094D0001A70039B002B01D1FFF7CEFF0023184623
:1094E00005B05DF804FB00BF1C5A002000E100E05D
:1094F000FC06FFBD00B585B003468DF80730104B64
:109500009B68002B16D09DF80730002B12D1FFF777
:10951000A7FF03900B4A0A4B1B681360094A084BCC
:109520005B685360064B00229A60039B002B01D1BD
:10953000FFF7A2FF0023184605B05DF804FB00BF4B
:109540001C5A002000E100E000B583B0019000F05B
:109550002BF80346012B03D00549432005F0C4F83E
:109560000198FFF78DFF00BF03B05DF804FB00BF5B
:10957000C032030000B583B003468DF8073000F019
:1095800013F80346012B03D00649512005F0ACF82F
:109590009DF807301846FFF7ADFF00BF03B05DF838
:1095A00004FB00BFC032030084B0EFF305830193D6
:1095B000019BC3F308030393039B002B0DD1EFF32F
:1095C00014830093009B0293029B03F00103002B82
:1095D0000CBF01230023DBB200E00123184604B0D6
:1095E0007047000082B003468DF807309DF90730C0
:1095F000002B0CDB9DF8073003F01F0205499DF995
:1096000007305B09012000FA02F241F8232000BF75
:1096100002B0704700E100E082B003468DF80730E9
:109620009DF90730002B0DDB9DF8073003F01F027A
:1096300006499DF907305B09012000FA02F2403328
:1096400041F8232000BF02B0704700BF00E100E0F6
:1096500082B0034600918DF807309DF90730002B4A
:109660000ADB009BDAB20C499DF907305201D2B2F5
:109670000B4483F800230BE0009BDAB207499DF806
:10968000073003F00F03043B5201D2B20B441A76A9
:1096900000BF02B0704700BF00E100E000ED00E055
:1096A00000B583B003460A468DF8073013468DF89F
:1096B00006309DF80630012B03D99DF80630032BA8
:1096C0000BD99DF80630042B03D99DF80630072BE3
:1096D00003D908496B2005F007F89DF806209DF98D
:1096E000073011461846FFF7B3FF00BF03B05DF81F
:1096F00004FB00BF1033030000B583B003468DF8B0
:1097000007309DF907301846FFF76CFF00BF03B024
:109710005DF804FB00B585B00190019B002B0AD0D9
:10972000074B43F001030393019B9B010293039BAF
:109730000298984700E000BF05B05DF804FB00BF49
:109740001034030084B0039002910192039B029AAB
:1097500002F5A872019943F8221000BF04B07047C7
:1097600082B001900091019B009A02F5A87253F813
:109770002230184602B0704782B001900091019BE0
:10978000009AC3F8042300BF02B0704782B0019072
:109790000091019B009AC3F8082300BF02B07047F4
:1097A00082B001900B46ADF80230BDF80230019A4C
:1097B00013441B68184602B0704784B001900B46F2
:1097C000ADF80230BDF80230019A134400221A604D
:1097D000BDF80230019A13441B680393039B00BF3A
:1097E00004B0704782B00190019BD3F8043518464D
:1097F00002B0704700B583B001900091009BB3F5B3
:10980000805F04D306494FF4BE7004F06DFF019BE6
:10981000009AC3F8082500BF03B05DF804FB00BF41
:109820004033030082B001900B468DF803309DF861
:109830000320019B13441A460123136000BF02B0AA
:10984000704782B001900091019B009AC3F84423B5
:1098500000BF02B0704782B001900091019B009A56
:10986000C3F8482300BF02B07047000000B587B0BE
:10987000039002910192039B002B03D133495520A1
:1098800004F032FF029B002B03D13049562004F034
:109890002BFF019B002B03D12C49572004F024FF00
:1098A000039B5B7919462A4A019B42F82130039BAE
:1098B0005B79284ADB0013441B79002B0ED0082368
:1098C0000593254A254BD31ADB081B0443F00203FA
:1098D00023491846FEF7E8F9059B32E0039B1A6816
:1098E000029B1B8819461046FFF784FF039B93F9E0
:1098F0000420029B9B7819461046FFF7D1FE039B7C
:1099000093F904301846FFF7F7FE039B5B79114A81
:10991000DB00134401221A71039B5B7919460D4A3F
:10992000039B42F83130002305930B4A0B4BD31AAB
:10993000DB081B0443F003030A491846FEF7B4F999
:10994000059B184607B05DF804FB00BF70330300A9
:10995000285A00202C5A0020EC2E0300B42E0300BD
:10996000B8330300DC33030000B583B00190019BE2
:10997000002B03D10649872004F0B6FE019B1B682B
:1099800000211846FFF74EFF00BF03B05DF804FB4F
:109990007033030000B583B00190019B002B03D10D
:1099A00006498D2004F0A0FE019B1B680421184687
:1099B000FFF738FF00BF03B05DF804FB703303000E
:1099C00000B587B00390029101928DF80330039B9C
:1099D000002B03D12149962004F086FE4FF48032FB
:1099E000029B02FA03F30593029B50339BB29B0048
:1099F000ADF81230019B23F07F430193039B1B685A
:109A000005991846FFF7C2FE039B1B680599184687
:109A1000FFF721FF039B1B68BDF812201146184673
:109A2000FFF7CBFE039B1B68019A02991846FFF7CC
:109A300089FE039B1B6805991846FFF702FF9DF8F6
:109A40000330002B05D0039B1B6805991846FFF7D0
:109A500093FE00BF07B05DF804FB00BF7033030046
:109A600000B585B00390029113468DF80730039B33
:109A7000002B03D10B49A92004F036FE039B1B6881
:109A800002991846FFF7DDFE9DF80730002B05D040
:109A9000039B1B6802991846FFF76EFE00BF05B0D6
:109AA0005DF804FB7033030000B583B001900091B2
:109AB000019B002B03D10A49B32004F015FE019B42
:109AC0001B6800991846FFF7C6FE019B1B680099AA
:109AD0001846FFF75BFE00BF03B05DF804FB00BF54
:109AE0007033030000B583B001900B46ADF802302F
:109AF000019B002B03D10F49BA2004F0F5FD019B17
:109B00001B68BDF8022011461846FFF749FE0346C0
:109B1000002B09D0019B1B68BDF802201146184696
:109B2000FFF74BFE012300E00023184603B05DF869
:109B300004FB00BF7033030082B001900091019AD2
:109B4000009BD31A23F07F43184602B070470000F1
:109B500000B58BB00390029101920093039B002B00
:109B600003D15749CD2004F0BFFD4FF48032029B52
:109B700002FA03F30993029B50339BB29B00ADF8AA
:109B80002230019B23F07F43019309990398FFF74B
:109B90008BFF039B1B681846FFF724FE0790039B6F
:109BA0001B6802991846FFF7DBFD0690039B1B68B4
:109BB000079A02991846FFF7C5FD039B1B68BDF87D
:109BC000222011461846FFF7F8FD07990698FFF77F
:109BD000B3FF0346012B0AD11020FFF79BFD039B27
:109BE0001B68BDF8222011461846FFF7E6FD039BCF
:109BF0001B681846FFF7F6FD079007990198FFF7D5
:109C00009BFF0590039B1B6809991846FFF719FEF7
:109C1000059B012B15D1039B1868019B01331A4644
:109C20000299FFF78FFD1020FFF774FD039B1B685F
:109C30001846FFF7D7FD0246079B934235D00D2308
:109C400039E0039B1B68019A02991846FFF77AFDD9
:109C5000039B1B681846FFF7C5FD0790019B013B5E
:109C600007991846FFF768FF0590009BC3F1FF13A3
:109C700003F57F43059A9A4201D90D231BE0059B0A
:109C8000002B12D1039B1868019B01331A460299DD
:109C9000FFF758FD039B1B681846FFF7A3FD02461C
:109CA000079B934201D00D2305E0012209990398F7
:109CB000FFF7D6FE002318460BB05DF804FB00BF8B
:109CC0007033030000B583B001900B468DF803306C
:109CD0009DF803301A4602210198FFF7C1FE00BF2C
:109CE00003B05DF804FB00B583B001904FF48271BE
:109CF0000198FFF7F7FE0346184603B05DF804FB32
:109D000000B583B0019000914FF48032009B02FABD
:109D100003F319460198FFF7C7FE00BF03B05DF8D3
:109D200004FB00B585B001900091009B50339BB2BD
:109D30009B00ADF80E30BDF80E3019460198FFF7C4
:109D4000D1FE0346184605B05DF804FB00B583B0AC
:109D500001900091019B1B6800991846FFF700FDD8
:109D60000346184603B05DF804FB00B583B00190CC
:109D7000019B1B681846FFF735FD0346184603B0E4
:109D80005DF804FB00B583B00190019B93F90430AA
:109D90001846FFF741FC00BF03B05DF804FB00006C
:109DA00008B5044B1B68044A12681046984700BF68
:109DB00008BD00BF285A00202C5A002086B0019010
:109DC0000091019B53E8011F8AB2D8890244988907
:109DD000824228BF121A1889824202BFBFF32F8F16
:109DE000002307E0C2EA010243E801200028E9D18C
:109DF0004FF001038DF80F30059002910492029A02
:109E0000009B1A609DF80F30DBB2184606B0704711
:109E100084B00190019951E8013FC3EA034341E84E
:109E20000132002AF7D10392029300BF04B07047B9
:109E300086B001900091019B53E8021F1FFAA1F226
:109E4000D888824202BFBFF32F8F00230DE0D8894C
:109E500002449889824228BF121AC1EA024243E8AA
:109E600002200028E8D14FF001038DF80F30059053
:109E700002910492029A009B1A609DF80F30DBB2A7
:109E8000184606B0704784B00190019951E8023F2E
:109E9000C3EA234341E80232002AF7D10392029336
:109EA00000BF04B0704784B00390029111461A4677
:109EB0000B46ADF806301346ADF80430029B002B7C
:109EC00001D10E231FE0BDF80630BDF80420B3FB1E
:109ED000F2F101FB02F29B1A9BB2002B01D0092385
:109EE00011E0039B029A1A60039B00225A60039BB5
:109EF00000229A60039BBDF806209A81039BBDF85F
:109F00000420DA810023184604B0704700B585B0FC
:109F100001900091009B19460198FFF74FFF0346FF
:109F2000002B07D0019B1B68009A128813440393EF
:109F3000039B00E00023184605B05DF804FB00B564
:109F400083B001900091009B1A88009B5B889A4225
:109F500004D10198FFF75CFF012300E000231846BD
:109F600003B05DF804FB00B585B001900091009B43
:109F700019460198FFF75CFF0346002B07D0019BB1
:109F80001B68009A528813440393039B00E000234C
:109F9000184605B05DF804FB00B583B00190009150
:109FA000009B1A88009B5B889A4204D10198FFF7B6
:109FB0006AFF012300E00023184603B05DF804FBAC
:109FC00000B585B001900091009B5B099B00019A50
:109FD0001A44009B03F01F03012101FA03F3194601
:109FE000104600F04DF8039000BF05B05DF804FB8B
:109FF00000B585B001900091009B5B099B00019A20
:10A000001A44009B03F01F03012101FA03F3DB4311
:10A010001946104600F064F8039000BF05B05DF8E3
:10A0200004FB82B001900091009B5B099B00019AA8
:10A0300013441A68009B03F01F0322FA03F303F092
:10A040000103002B14BF01230023DBB2184602B02A
:10A05000704710B487B001900091019B009A53E8BB
:10A06000004F104643E8000191F0000FF7D105942E
:10A0700004900391059B184607B05DF8044B7047A8
:10A0800010B487B001900091019B009A53E8004FF3
:10A0900044EA020043E8000191F0000FF6D1059474
:10A0A00004900391049B184607B05DF8044B704779
:10A0B00010B487B001900091019B009A53E8004FC3
:10A0C00004EA020043E8000191F0000FF6D1059484
:10A0D00004900391059B184607B05DF8044B704748
:10A0E00010B487B001900091019B009A53E8004F93
:10A0F00004EA020043E8000191F0000FF6D1059454
:10A1000004900391049B184607B05DF8044B704718
:10A1100010B487B001900091019B009A53E8004F62
:10A1200004EB020043E8000191F0000FF6D1059422
:10A1300004900391049B184607B05DF8044B7047E8
:10A1400010B487B001900091019B009A53E8004F32
:10A15000A4EB020043E8000191F0000FF6D1059452
:10A1600004900391049B184607B05DF8044B7047B8
:10A1700000B583B0019001210198FFF781FF0346EC
:10A18000184603B05DF804FB00B583B001900021D0
:10A190000198FFF78DFF0346184603B05DF804FBF6
:10A1A00000B583B001900B468DF80330019B002B66
:10A1B00003D10849E82004F097FA019BDA689DF87A
:10A1C00003300199098A01FB03F31344184603B0D5
:10A1D0005DF804FB1834030000B583B001900091D2
:10A1E000019B002B03D10849F52004F07DFA009B68
:10A1F000019AD2689B1A019A128AB3FBF2F3DBB27E
:10A20000184603B05DF804FB1834030000B585B0B0
:10A210000190019B002B01D10E234CE0019B1B6898
:10A22000002B03D12649FF2004F05EFA019B5B68F6
:10A23000002B04D122494FF4807004F055FA019BA1
:10A240009B68002B04D11E4940F2011004F04CFA27
:10A25000019BDB68002B04D119494FF4817004F095
:10A2600043FA019B1B8A002B04D1154940F20310CD
:10A2700004F03AFA019B9A68019B5B68D31A8DF847
:10A280000F30019B1B68019A52681A6007E0019B1E
:10A290001A681368591C11609DF80F201A709DF8F8
:10A2A0000F305A1E8DF80F20002BF0D1019B1B6838
:10A2B00000221A710023184605B05DF804FB00BFA8
:10A2C0001834030000B585B00190019B002B04D128
:10A2D0001F494FF4927004F007FA00230393002300
:10A2E0008DF80A300DF10A031846FFF72DF9019B8E
:10A2F0001B681A68019B5B689A421FD9019B1B6807
:10A300001A68013A1A601B681B7819460198FFF712
:10A3100047FF0390019B9A68019B1B681B68D31A37
:10A320008DF80B30019B1B681B799DF80B209A421E
:10A3300004D9019B1B689DF80B201A719DF80A3007
:10A340001846FFF717F9039B184605B05DF804FBA4
:10A350001834030010B584B001900091019B002BCC
:10A3600004D1154940F2471004F0BEF9009B002BC0
:10A3700004D111494FF4A47004F0B6F9009B039383
:10A3800000238DF80B300DF10B031846FFF7DCF8B6
:10A39000019B1B681C68621C1A6003990198FFF7F7
:10A3A0001BFF034623709DF80B301846FFF7E2F8B9
:10A3B00000BF04B010BD00BF1834030000B583B067
:10A3C0000190019B002B03D10C49312004F08CF942
:10A3D000019B9B68002B0CD0019B5B69019A106963
:10A3E000019A1168019A92689847019B00229A602D
:10A3F00000E000BF03B05DF804FB00BF643403005D
:10A400000EB400B584B00190019B002B03D1184914
:10A41000422004F069F9019B5B69002B03D11449C8
:10A42000432004F061F9019B1B68002B03D1104904
:10A43000442004F059F9019B5B68002B03D10C49BF
:10A44000452004F051F9059B002B0AD0002303930B
:10A4500006AB039303AB1A460599019800F0B8F9CF
:10A4600000E000BF04B05DF804EB03B0704700BF2C
:10A470006434030000B583B001900B468DF80330BF
:10A480009DF803300A2B03D10D210198FFF7F2FF4D
:10A49000019B1A68019B9B68581C019988601344B2
:10A4A0009DF803201A70019B9A68019B5B689A4291
:10A4B00002D30198FFF782FF00BF03B05DF804FBF1
:10A4C00000B587B003900291019200930023059399
:10A4D000009B03F00103002B24D00BE0029B01330F
:10A4E0000293059B013305939DF813301946039899
:10A4F000FFF7C0FF029B1B788DF813309DF81330D7
:10A50000002BEBD106E0019B013B01932021039836
:10A51000FFF7B0FF019A059B9A422ED9019B002BB1
:10A52000F1D12AE0029B002B0BD0029808F08DFCA1
:10A53000059006E0019B013B019320210398FFF762
:10A5400099FF019A059B9A420FD9019B002BF1D1EB
:10A550000BE0029B01330293059B013305939DF8A9
:10A56000133019460398FFF785FF029B1B788DF87F
:10A5700013309DF81330002BEBD100BF07B05DF80E
:10A5800004FB000000B589B0039002910192009392
:10A59000029B07930123069307E0079A019BB2FBF6
:10A5A000F3F30793069B01330693079A019B9A42A4
:10A5B000F3D2009A069B9A4201D9009B06930B9B0B
:10A5C00003F00103002B22D10A9B002B1FD00B9B11
:10A5D00003F00203002B06D0009B002B03D1302395
:10A5E0008DF8173002E020238DF8173008E00A9B21
:10A5F000013B0A939DF8173019460398FFF73AFF7D
:10A600000A9B002B03D0069A0A9B9A42EFD30123A0
:10A610000793009B012B03D9009B013B009309E0AA
:10A62000029A079BB2FBF3F30493049A019B9A42AC
:10A6300000D205E0079B019A02FB03F30793E8E7CA
:10A64000029A079BB2FBF3F30493049B079A02FB65
:10A6500003F3029AD31A0293154A049B13441B78FE
:10A6600019460398FFF706FF079A019BB2FBF3F325
:10A670000793079B002BE3D10B9B03F00103002BF7
:10A6800011D00A9B002B0ED006E00A9B013B0A93D7
:10A6900020210398FFF7EEFE0A9B002B03D0069AB9
:10A6A0000A9B9A42F1D300BF09B05DF804FB00BFDA
:10A6B000F034030000B589B0059004910392029331
:10A6C000049B002BB8BF5B4206930123079307E06E
:10A6D000039B069A92FBF3F30693079B01330793C0
:10A6E000039B069A9A42F3DA029A079B9A4201D98F
:10A6F000029B07930A9B002B0AD0049B002B04DBD0
:10A700000B9B03F00403002B02D00A9B013B0A932E
:10A710000B9B03F00203002B02D0029B002B16D0F0
:10A720000B9B03F00103002B11D10A9B002B0ED0D1
:10A7300006E00A9B013B0A9320210598FFF79AFE49
:10A740000A9B002B03D0079A0A9B9A42F1D3049BE1
:10A75000002B07DA049B5B4204932D210598FFF739
:10A7600089FE08E00B9B03F00403002B03D02B2190
:10A770000598FFF77FFE0B9B03F00203002B19D017
:10A780000B9B03F00103002B14D1029B002B11D172
:10A790000A9B002B0ED006E00A9B013B0A93302156
:10A7A0000598FFF767FE0A9B002B03D0079A0A9BC8
:10A7B0009A42F1D304990B9B01930A9B0093029B4D
:10A7C000039A0598FFF7DEFE00BF09B05DF804FBB1
:10A7D00000B58FB0059004910392059B002B04D126
:10A7E000AD4940F2522003F07FFF059B5B69002BCF
:10A7F00004D1A9494FF4157003F076FF059B1B683F
:10A80000002B04D1A44940F2552003F06DFF059BB5
:10A810005B68002B04D1A04940F2562003F064FF8E
:10A82000049B002B00F09381049B1B788DF837303C
:10A83000049B013304939DF83730002B00F07E8198
:10A840009DF83730252B40F06D8100230A930123BA
:10A850000C93049B1B788DF837309DF83730302BE4
:10A860000DD0302B1BDC2B2B11D02D2B17D10A9B9D
:10A8700043F001030A93049B0133049312E00A9B03
:10A8800043F002030A93049B013304930AE00A9BFA
:10A8900043F004030A93049B0133049302E0002372
:10A8A0000C9300BF0C9B002BD3D1002309939DF880
:10A8B00037302A2B0CD1039B1B68191D039A11609A
:10A8C0001B68099A13440993049B013304931AE00B
:10A8D000049B1B788DF837309DF837302F2B12D919
:10A8E0009DF83730392B0ED8049B01330493099A15
:10A8F00013469B0013445B001A469DF837301344FF
:10A90000303B0993D3E700230B93049B1B788DF80E
:10A9100037309DF837302E2B1DD1049B0133049323
:10A92000049B1B788DF837309DF837302F2B12D9C8
:10A930009DF83730392B0ED8049B013304930B9AC2
:10A9400013469B0013445B001A469DF837301344AE
:10A95000303B0B93E4E7049B1B788DF837309DF870
:10A9600037306C2B03D09DF83730682B07D1049B10
:10A9700001330493049B1B788DF83730EFE79DF883
:10A980003730252B00F0C480252BC0F2C680782BF1
:10A9900000F3C380582BC0F2C080583B202B00F23C
:10A9A000BC8001A252F823F09DAA02001BAB02005A
:10A9B0001BAB02001BAB02001BAB02001BAB020077
:10A9C0001BAB02001BAB02001BAB02001BAB020067
:10A9D0001BAB02002DAA02004FAA02001BAB020013
:10A9E0001BAB02001BAB02001BAB02004FAA020014
:10A9F0001BAB02001BAB02001BAB02001BAB020037
:10AA00001BAB02001BAB0200DDAA02001BAB020065
:10AA10001BAB0200C1AA02001BAB020073AA02001A
:10AA20001BAB02001BAB02009DAA0200039B1B682C
:10AA3000191D039A11601B680C930C9B8DF81F3035
:10AA40009DF81F3019460598FFF714FD66E0039B3B
:10AA50001B68191D039A11601B680C930A9B0193D4
:10AA6000099B00930B9B0A220C990598FFF722FE85
:10AA700054E0039B1B68191D039A11601B680C931B
:10AA80000C990A9B0193099B00930B9B0A22059842
:10AA9000FFF778FD42E000BFA8340300039B1B686A
:10AAA000191D039A11601B680C930C990A9B019362
:10AAB000099B00930B9B10220598FFF763FD2DE087
:10AAC000039B1B68191D039A11601B6808930A9B5E
:10AAD000099A08990598FFF7F3FC1FE0039B1B6890
:10AAE000191D039A11601B680C9330210598FFF71C
:10AAF000C1FC78210598FFF7BDFC0C990023019358
:10AB000008230093082310220598FFF73BFD05E07A
:10AB100025210598FFF7AEFC00E000BF049B013340
:10AB2000049305E09DF8373019460598FFF7A2FC1D
:10AB3000049B1B78002B7FF477AE00E000BF059BE1
:10AB40001B7B002B04D00598FFF738FC00E000BF0A
:10AB50000FB05DF804FB00BF00B583B00190019811
:10AB6000FFF754FB0346184603B05DF804FB00B53D
:10AB70008BB001900091019B1B8A043B0793009AC4
:10AB8000079B1344DA1C079BB2FBF3F38DF81B30D1
:10AB90000198FFF797FB0590059B002B01D100233F
:10ABA00038E0059B00221A71059B01225A71079B10
:10ABB0009AB2059BDA80059B09939DF81B30013BF7
:10ABC0000493099B019A1A60002308931DE00198E1
:10ABD000FFF778FB0390039B002B0ED0059B5B795E
:10ABE0000133DAB2059B5A71099B039A1A60039BE1
:10ABF000019A1A60039B099304E0059800F00EF88F
:10AC0000002307E0089B01330893089A049B9A42AB
:10AC1000DDD3059B18460BB05DF804FB00B58BB087
:10AC20000190019B0793079B5B798DF81B30019B7B
:10AC300008939DF81B30013B05930023099305E021
:10AC4000089B1B680893099B01330993099A059B8C
:10AC50009A42F5D3089B1B680493019B0893002339
:10AC600009930BE0089B1B68039308990498FFF76E
:10AC700071FB039B0893099B013309939DF81B30DB
:10AC8000099A9A42EED300BF00BF0BB05DF804FBF7
:10AC900000B585B00190019B0393039B0433012110
:10ACA0001846FFF735FA00BF05B05DF804FB00B5A4
:10ACB00087B00190019B0593059B04330121184641
:10ACC000FFF73EFA0346039303AB0493049B1B7800
:10ACD000002B02D10198FFF7A1FF00BF07B05DF87C
:10ACE00004FB000000B591B0039002910192009323
:10ACF000039B002B03D14349B62003F0F5FC039BD3
:10AD00000993039B0F93099BDB881A46099B5B7988
:10AD100002FB03F3043B0893009A089B9A4203D377
:10AD20003849C42003F0E0FC099BDB880793009BB3
:10AD30001A1D079BB2FBF3F30E93009B0433079A93
:10AD4000B3FBF2F2079901FB02F29B1A0D93019BF0
:10AD50001A68009B1344089A9A4203D2089A009BEF
:10AD6000D31A01E0019B1B680C93019B0C9A1A609B
:10AD700005E00F9B1B680F930E9B013B0E930E9BF0
:10AD8000002BF6D100230B93079A0D9BD31A0A933D
:10AD90000A9A0C9B934228BF13460A932AE0029A10
:10ADA0000B9B134406930F9A0D9B13440433059396
:10ADB0009DF84830002B05D00A9A0599069807F0AF
:10ADC000C6FF04E00A9A0699059807F0C0FF002321
:10ADD0000D930F9B1B680F930C9A0A9BD31A0C932D
:10ADE0000B9A0A9B13440B93079A0C9B934228BF20
:10ADF00013460A930C9B002BD1D100BF00BF11B0AA
:10AE00005DF804FB0035030000B589B0059004919E
:10AE100003920293039B079307AA00230093029BCC
:10AE200004990598FFF75EFF079B039A9A4203D0A7
:10AE30000349F62003F058FC00BF09B05DF804FB9D
:10AE40000035030000B589B0059004910392029388
:10AE5000039B079307AA01230093029B049905987B
:10AE6000FFF740FF079B039A9A4204D004494FF42E
:10AE7000807003F039FC00BF09B05DF804FB00BF2F
:10AE80000035030082B003468DF807309DF9073086
:10AE9000002B0DDB9DF8073003F01F0206499DF9DA
:10AEA00007305B09012000FA02F2603341F82320E9
:10AEB00000BF02B0704700BF00E100E0BFF34F8F5A
:10AEC00000BF064BDB6803F4E0620449044B134304
:10AED000CB60BFF34F8F00BF00BFFDE700ED00E088
:10AEE0000400FA0500B583B00190019B002B03D14B
:10AEF0000449C42003F0F8FB019B5B68184603B0CB
:10AF00005DF804FB4C35030000B583B00190019B54
:10AF1000002B03D10649722003F0E6FB019B0022BF
:10AF20001A60BFF35F8F00BF00BF03B05DF804FB82
:10AF3000A035030000B585B00190019B002B03D123
:10AF40000A49852003F0D0FB01210198FFF781F821
:10AF50000390BFF35F8F00BF039B002B0CBF012347
:10AF60000023DBB2184605B05DF804FBA0350300F2
:10AF700000B583B00190019B002B03D10A499220B8
:10AF800003F0B2FB019B1B68012B03D00649932001
:10AF900003F0AAFBBFF35F8F00BF019B00221A6082
:10AFA00000BF03B05DF804FBA035030033DF70473A
:10AFB00000BF184641DF704700BF18464FF080437E
:10AFC0000122C3F80025BFF34F8F00BF20BFFDE76C
:10AFD00000B585B000238DF807300DF10703184642
:10AFE000FEF7B2FAF1EE103A0393039B23F09F03AE
:10AFF0000293029BE1EE103A00BFBFF35F8F00BFE8
:10B000002620FFF73FFF9DF807301846FEF7B2FAFB
:10B01000039B03F00703002B03D004497D2003F0BA
:10B0200063FB00BF05B05DF804FB00BFE43503001F
:10B0300008B5044B1B78002B02D0042000F0B6F8B2
:10B0400000BF08BD3C5A002000B583B00190FFF757
:10B05000EFFF00BF03B05DF804FB000000B583B054
:10B060000B4A01210B48FEF75DF90190019B002B73
:10B0700001D0019B07E0084B00224FF480411846A5
:10B08000FEF784F90346184603B05DF804FB00BFE1
:10B0900049B0020040360300485A002008B5074B6B
:10B0A00000221A700648FFF72FFF0649064800F0F5
:10B0B000D7F8FFF7D3FF0346184608BD3C5A0020D7
:10B0C000385A002034360300405A002000B583B0BF
:10B0D000FFF77EFF07F052FB0346002B0ED0FFF771
:10B0E00069FF0190019B002B0BD0019B022B08D024
:10B0F00006494FF4B07003F0F7FA02E020BF40BFFA
:10B1000020BF00BF03B05DF804FB00BFE4350300BF
:10B1100000B583B00FE02248FFF7E4FE0190019BE9
:10B120001B68204A1278104698470346002B32D0FD
:10B130001B4800F0BFF81A48FFF7D4FE0346002B67
:10B14000E9D1FDF74FF800BFFCF70AFE0346002BDC
:10B15000FAD1144B1B78032B03D0124B1B78022B14
:10B1600001D1FFF7ABFE07F009FB0346002B0FD020
:10B17000FFF71CFF0090009B002B07D0009B022BC9
:10B1800004D009494FF4D17003F0AEFA20BFFDE7B7
:10B19000FFF714FF00E000BF03B05DF804FB00BF41
:10B1A000405A0020345A0020E435030000B583B033
:10B1B00003468DF807301748FFF7BCFE034683F0BF
:10B1C0000103DBB2002B21D19DF80730042B0ED0F8
:10B1D000114B1B78002B03D00E48FFF7C9FE16E079
:10B1E0000E4A9DF8073013700B4B01221A700A4B60
:10B1F0001B78002B04D10A4940F2D51003F074FAF1
:10B20000FFF786FF0348FFF7B3FE00E000BF03B07F
:10B210005DF804FB385A00203C5A0020345A0020C4
:10B22000E435030082B00190019B9B6800229A6084
:10B23000019B9B6800221A61019B9B6800225A6156
:10B24000019B9B680022DA60019B9B6800225A6088
:10B25000019B9B6800221A6000BF02B0704700008B
:10B2600000B583B001900091019B002B03D11049E0
:10B27000502003F039FA009B002B03D10C495120D8
:10B2800003F032FA019B009A1A60019B1B681A684E
:10B29000019B5A60019B5A68019B1B685B689A423C
:10B2A00002D1019B00225A6000BF03B05DF804FB8D
:10B2B0004436030000B583B00190019B002B03D1FD
:10B2C0001449632003F010FA019B1B68002B03D183
:10B2D0001049642003F008FA019B5B68002B14D02E
:10B2E000019B5B681A46019B1B689B6813441A46C6
:10B2F000019B5A60019B5A68019B1B685B689A42DC
:10B3000004D1019B00225A6000E000BF03B05DF849
:10B3100004FB00BF4436030000B585B001900091E6
:10B32000019B002B03D118493A2003F0DDF9009B63
:10B33000002B03D114493B2003F0D6F9019B5B6835
:10B3400003930FE0019B9B68039A126800991046D3
:10B350009847034683F00103DBB2002B07D1039B20
:10B360001B680393039B1B68002BEBD100E000BF1D
:10B37000039B1A68009B1A60039B009A1A6000BF27
:10B3800005B05DF804FB00BFB436030000B585B01E
:10B390000190019B002B03D10C49512003F0A4F92B
:10B3A000019B5B681B680393019B5B681B68002B18
:10B3B00006D0019B5B681A68019B5B6812681A6083
:10B3C000039B184605B05DF804FB00BFB4360300CC
:10B3D00000B583B00190019B002B03D105495D208E
:10B3E00003F082F9019B5B681B68184603B05DF8A7
:10B3F00004FB00BFB436030000B585B00190009196
:10B40000019B002B03D11649692003F06DF9009BC5
:10B41000002B03D112496A2003F066F900238DF84E
:10B420000B30019B5B6803930FE0039B1B68009A42
:10B430009A4207D1009B1A68039B1A6001238DF87A
:10B440000B3006E0039B1B680393039B1B68002BD8
:10B45000EBD19DF80B30184605B05DF804FB00BF3A
:10B46000B436030000B585B00190019800F00EF8E5
:10B470000390039B002B01D0039B00E0024B184676
:10B4800005B05DF804FB00BF0437030086B00190EF
:10B49000164B0593164B04931FE0049A059BD31A91
:10B4A000DB10DA0F13445B10DB00059A134403939F
:10B4B000039B1B680293029A019B9A4202D9039B49
:10B4C00004930AE0029A019B9A4203D2039B083339
:10B4D000059302E0039B5B6804E0059A049B9A4293
:10B4E000DBD30023184606B0704700BF043B0300BF
:10B4F0002C3C0300BFF34F8F00BF064BDB6803F407
:10B50000E0620449044B1343CB60BFF34F8F00BF8D
:10B5100000BFFDE700ED00E00400FA0582B00D4B2E
:10B520001B6801930C4B1B680093019B0D2B0CD1E6
:10B53000009B002B03D0009B012B02D003E00123D2
:10B5400004E0012302E0012300E00023184602B0DA
:10B55000704700BF300100103401001082B00D4B65
:10B560001B6801930C4B1B680093019B0D2B0CD1A6
:10B57000009B002B03D0009B012B02D003E0012392
:10B5800004E0012302E0012300E00023184602B09A
:10B59000704700BF300100103401001082B00D4B25
:10B5A0001B6801930C4B1B680093019B0D2B0CD166
:10B5B000009B002B03D0009B012B02D003E0012352
:10B5C00004E0012302E0012300E00023184602B05A
:10B5D000704700BF3001001034010010024B034AD5
:10B5E0001A6000BF704700BFC44200200090D00323
:10B5F00008B5FFF793FF0346002B0ED04FF08043B2
:10B600000022C3F80C214FF080430022C3F8102120
:10B610004FF080430022C3F83825FFF79FFF034611
:10B62000002B76D04FF08053684AD3F80434C2F828
:10B6300020354FF08053654AD3F80834C2F82435DA
:10B640004FF08053614AD3F80C34C2F828354FF0DC
:10B6500080535E4AD3F81034C2F82C354FF0805333
:10B660005A4AD3F81434C2F830354FF08053574A51
:10B67000D3F81834C2F834354FF08053534AD3F816
:10B680001C34C2F840354FF08053504AD3F8203470
:10B69000C2F844354FF080534C4AD3F82434C2F8F2
:10B6A00048354FF08053494AD3F82834C2F84C3516
:10B6B0004FF08053454AD3F82C34C2F850354FF040
:10B6C0008053424AD3F83034C2F854354FF0805397
:10B6D0003E4AD3F83434C2F860354FF080533B4AC9
:10B6E000D3F83834C2F864354FF08053374AD3F872
:10B6F0003C34C2F868354FF08053344AD3F84034B4
:10B70000C2F86C354FF08053304AD3F84434C2F855
:10B710007035FFF743FF0346002B0DD04FF08043F9
:10B72000D3F8003403F00103002B05D04FF0804321
:10B730006FF00102C3F80024254BD3F88830244A67
:10B7400043F47003C2F88830BFF34F8F00BFBFF3DC
:10B750006F8F00BF4FF01023D3F80032002B05DBB2
:10B760004FF01023D3F80432002B2BDA194B0122AF
:10B77000C3F8042500BF174BD3F80034002BFAD0D0
:10B780004FF010231222C3F8002200BF114BD3F850
:10B790000034002BFAD04FF010231222C3F80422F9
:10B7A00000BF0C4BD3F80034002BFAD0094B002219
:10B7B000C3F8042500BF074BD3F80034002BFAD0A0
:10B7C000FFF798FEFFF70AFF00BF08BD00C000406A
:10B7D00000ED00E000E0014000B583B00190019B66
:10B7E0001B68184600F0C3F80346002B04D10B4930
:10B7F0004FF4F67002F078FF019B1B681F2B02D8F4
:10B800004FF0A04306E0019B1B6803F01F02019B61
:10B810001A60034B184603B05DF804FB2C3C030090
:10B820000003005000B585B00190084611461A4645
:10B8300003468DF803300B468DF8023013468DF821
:10B84000013001AB1846FFF7C7FF03909DF80320B6
:10B850009DF802305B001A439DF801309B001A43AB
:10B860009DF818301B0242EA03019DF81C301B04AE
:10B87000019A1943039B02F5E07243F8221000BFBE
:10B8800005B05DF804FB00B585B00390002301937B
:10B89000002300930023012201210398FFF7C2FF38
:10B8A00000BF05B05DF804FB00B585B003900B4602
:10B8B0008DF80B309DF80B3000220192002200928F
:10B8C000002200210398FFF7ADFF00BF05B05DF82F
:10B8D00004FB00B585B0019001AB1846FFF77CFF73
:10B8E0000390019B012202FA03F31946039800F02A
:10B8F0002AF800BF05B05DF804FB00B585B00190E3
:10B9000001AB1846FFF768FF0390019B012202FA82
:10B9100003F31946039800F020F800BF05B05DF866
:10B9200004FB00B583B001900091009B002B03D174
:10B930000198FFF7E2FF02E00198FFF7CAFF00BF9E
:10B9400003B05DF804FB82B001900091019B009A66
:10B95000C3F8082500BF02B0704782B00190009183
:10B96000019B009AC3F80C2500BF02B0704784B059
:10B970000190019B5B09029300230393029B002B20
:10B9800003D0029B012B04D007E04FF0FF33039359
:10B9900003E040F2FF33039300BF019B03F01F035A
:10B9A0000193039A019B22FA03F303F00103002B96
:10B9B00014BF01230023DBB2184604B07047000017
:10B9C00000B583B00190019B002B03D006494120B4
:10B9D00002F08AFE032301211846FFF7A2FF00BFF1
:10B9E00003B05DF804FB00BF5C3C030000B583B00E
:10B9F0000190019B002B03D00649472002F074FE02
:10BA0000032300211846FFF78CFF00BF03B05DF849
:10BA100004FB00BF5C3C030000B583B0002301932E
:10BA200005E00198FFF7E2FF019B01330193019BC1
:10BA3000002BF6D000BF00BF03B05DF804FB00B5DB
:10BA400083B00023019306E003231846FFF71BFF92
:10BA5000019B01330193019B002BF5D0FFF7DCFF25
:10BA600000BF03B05DF804FB00B583B00023019371
:10BA700007E0022303211846FFF716FF019B01335D
:10BA80000193019B002BF4D000BF00BF03B05DF811
:10BA900004FB84B001904FF0FF3302930023039323
:10BAA0000AE002231A46019B934202D1039B0293B0
:10BAB00005E0039B01330393039B002BF1D0029B12
:10BAC000184604B0704700B583B00190019B03F0A5
:10BAD0000103002B01D0FFF7B2FF019B03F002032B
:10BAE000002B01D0FFF7C0FF00BF03B05DF804FBDF
:10BAF00082B003468DF807309DF90730002B13DB29
:10BB00009DF8073003F01F0209499DF907305B09D2
:10BB1000012000FA02F2203341F82320BFF34F8FB7
:10BB200000BFBFF36F8F00BF00BF02B0704700BF00
:10BB300000E100E0044BD3F80034002B14BF0123D4
:10BB40000023DBB2184670470000014008B506F03C
:10BB500015FE034683F00103DBB2002B03D1094934
:10BB60007B2002F0C1FDFFF7E5FF034683F00103F0
:10BB7000DBB2002B04D000F08DFA034B00229A7048
:10BB800000BF08BDA43C0300685A002000B583B084
:10BB900000230193184B1B78002B02D085230193BF
:10BBA0001CE0154B00229A60134B00225A60124B86
:10BBB00000221A61104B0022DA60104800F034FABB
:10BBC000019006F0DBFD034683F00103DBB2002B9E
:10BBD00001D000F04BFA084B01221A70FFF7AAFFC0
:10BBE0000346002B02D0044B01229A70019B184699
:10BBF00003B05DF804FB00BF685A0020D5BC02000A
:10BC000084B00190019B1B680393039B002B03D01E
:10BC1000039B1A68019B1A60039B184604B0704787
:10BC200000B583B0164B1B78002B04D1154940F2A8
:10BC3000171002F059FD124BDB68002B04D111499B
:10BC40004FF48C7002F050FD00238DF807300DF199
:10BC500007031846FDF778FC094BDB68013B084AEF
:10BC6000D360074BDB68002B01D1FFF76FFF9DF816
:10BC700007301846FDF77EFC00BF03B05DF804FBFB
:10BC8000685A0020A43C030000B585B003468DF837
:10BC900007309DF80730002B02D10C4B039301E0D5
:10BCA0000B4B03930398FFF7ABFF0290029B002B13
:10BCB00006D0029B5B689DF8072010469847F1E785
:10BCC00000BF00BF05B05DF804FB00BF705A002044
:10BCD000785A002000B583B003468DF807309DF8F0
:10BCE0000730002B05D10A4B01225A700020FFF7C4
:10BCF000CBFF9DF80730012B05D1054B01229A702F
:10BD00000120FFF7C1FF00BF03B05DF804FB00BFD7
:10BD1000685A002000B583B001900091019B002B70
:10BD200005D1054B01225A700020FFF7ADFF00BF7F
:10BD300003B05DF804FB00BF685A002000B585B071
:10BD4000034600918DF807309DF80730032B29D06A
:10BD5000032B35DC002B02D0012B04D030E0002077
:10BD6000FFF7C6FE2DE000238DF80F300DF10F0315
:10BD70001846FDF7E9FB154B1B7883F00103DBB296
:10BD8000002B01D0FFF702FF104BDB6801330F4A95
:10BD9000D3600E4B01229A709DF80F301846FDF7C4
:10BDA000E9FB0EE0094B1B78002B04D1084940F257
:10BDB000522002F099FC00F059F9FFF731FF00E042
:10BDC00000BF00BF05B05DF804FB00BF685A00204B
:10BDD000A43C030082B003468DF807309DF907307C
:10BDE000002B0CDB9DF8073003F01F0205499DF97D
:10BDF00007305B09012000FA02F241F8232000BF5E
:10BE000002B0704700E100E082B0034600918DF877
:10BE100007309DF90730002B0ADB009BDAB20C4992
:10BE20009DF907305201D2B20B4483F800230BE096
:10BE3000009BDAB207499DF8073003F00F03043B7B
:10BE40005201D2B20B441A7600BF02B0704700BF55
:10BE500000E100E000ED00E082B00190019B1B0BCF
:10BE60005BB2184602B0704700B583B003460A467D
:10BE70008DF8073013468DF806309DF80630012BFB
:10BE800003D99DF80630032B0BD99DF80630042BFF
:10BE900003D99DF80630072B03D908496B2002F01F
:10BEA00023FC9DF806209DF9073011461846FFF740
:10BEB000ABFF00BF03B05DF804FB00BFF03C030024
:10BEC00000B583B003468DF807309DF9073018465A
:10BED000FFF780FF00BF03B05DF804FB82B00346AC
:10BEE0008DF807300F4A9DF90730002B00DA1F3319
:10BEF0005B115BB252F823209DF90730594203F0E1
:10BF00001F0301F01F0158BF4B425BB222FA03F33B
:10BF100003F00103002B14BF01230023DBB21846FA
:10BF200002B0704700E100E082B001904FF0804223
:10BF3000019BC2F8083300BF02B0704782B00346CD
:10BF40008DF807309DF8073003F1804301221A6015
:10BF500000BF02B0704784B00346ADF80630BDF8AC
:10BF6000063003F1804300221A60BDF8063003F169
:10BF700080431B680393039B00BF04B0704782B0EB
:10BF80000346ADF80630BDF8063003F180431B6868
:10BF9000002B14BF01230023DBB2184602B0704708
:10BFA00082B001904FF08042019BC2F8183500BF6B
:10BFB00002B070474FF08043D3F818341B0C03F0E5
:10BFC0000103002B14BF01230023DBB21846704786
:10BFD00000B583B006238DF807304FF08040FFF79F
:10BFE0003BFF03461846FFF779FF034683F0010342
:10BFF000DBB2002B13D04FF08040FFF72DFF03463C
:10C000001A469DF8073019461046FFF72DFF4FF0EE
:10C010008040FFF721FF03461846FFF751FF00BF9E
:10C0200003B05DF804FB000000B585B00190019BF2
:10C03000002B03D10B49A42002F056FB00230393ED
:10C04000094B1B79002B02D08523039305E0064A98
:10C05000019B1360044B01221A71039B184605B023
:10C060005DF804FB283D03007C5A002008B5074B0F
:10C070001B79002B03D10649BD2002F035FBFFF7E9
:10C08000A7FF0120FFF78CFF00BF08BD7C5A0020EE
:10C09000283D030008B50D4B1B79002B03D10C493B
:10C0A000F72002F021FB0220FFF73EFF4FF48270E1
:10C0B000FFF751FF0C20FFF741FF00BFFFF77AFFAA
:10C0C0000346002BFAD100BF00BF08BD7C5A0020F8
:10C0D000283D030008B54FF48070FFF750FF03467A
:10C0E000002B0AD04FF48070FFF735FF0120FFF7D7
:10C0F0001BFF0C4B1B68002098474FF48270FFF722
:10C100003EFF0346002B0AD04FF48270FFF723FF57
:10C110000220FFF709FF034B1B680120984700BF6F
:10C1200008BD00BF7C5A002082B003468DF807305E
:10C130009DF90730002B0CDB9DF8073003F01F0240
:10C1400005499DF907305B09012000FA02F241F828
:10C15000232000BF02B0704700E100E082B0034638
:10C1600000918DF807309DF90730002B0ADB009B0A
:10C17000DAB20C499DF907305201D2B20B4483F870
:10C1800000230BE0009BDAB207499DF8073003F06B
:10C190000F03043B5201D2B20B441A7600BF02B027
:10C1A000704700BF00E100E000ED00E082B00190C8
:10C1B000019B1B0B5BB2184602B0704700B583B001
:10C1C00003460A468DF8073013468DF806309DF871
:10C1D0000630012B03D99DF80630032B0BD99DF8AF
:10C1E0000630042B03D99DF80630072B03D90849E4
:10C1F0006B2002F079FA9DF806209DF90730114670
:10C200001846FFF7ABFF00BF03B05DF804FB00BFAB
:10C21000703D030000B583B003468DF807309DF9EB
:10C2200007301846FFF780FF00BF03B05DF804FB3E
:10C2300000B583B00346ADF80630BDF806301846A9
:10C2400000F026F803461B68012B0CBF01230023D6
:10C25000DBB2184603B05DF804FB00B585B00346B9
:10C26000ADF80630BDF80630184600F011F8034668
:10C270001A4600231360BDF80630184600F008F88F
:10C2800003461B680393039B00BF05B05DF804FBE6
:10C2900082B00346ADF80630BDF8063003F18043A6
:10C2A00003F5C043184602B07047000082B0019009
:10C2B000034A019BC2F8043300BF02B0704700BFBD
:10C2C0000060004082B00190034BD3F80423019B2F
:10C2D0001340184602B070470060004082B00190E1
:10C2E000084A019B03F5A27352F82330054943F035
:10C2F0000102019B03F5A27341F8232000BF02B0A5
:10C30000704700BF0060004084B003900291134664
:10C310008DF80730144A039B03F5A27352F82330BB
:10C32000114923F44F3323F44073039A02F5A272A8
:10C3300041F822300C4A039B03F5A27352F82320E4
:10C34000029B1B0203F47C519DF807301B0403F48D
:10C3500040330B4304491A43039B03F5A27341F88E
:10C36000232000BF04B070470060004082B00190FD
:10C37000054A019B03F5A27352F823301B0A03F010
:10C380003F03184602B070470060004082B0019041
:10C39000064A019B03F5A27352F823301B0C03F0ED
:10C3A0000303DBB2184602B0704700BF00600040D4
:10C3B00000B583B00190019B1B68184600F02AF974
:10C3C0000346002B04D10B494FF4F67002F08CF9B0
:10C3D000019B1B681F2B02D84FF0A04306E0019B76
:10C3E0001B6803F01F02019B1A60034B184603B041
:10C3F0005DF804FBA03D03000003005000B585B0CC
:10C400000190084611461A4603468DF803300B4644
:10C410008DF8023013468DF8013001AB1846FFF756
:10C42000C7FF03909DF803209DF802305B001A437C
:10C430009DF801309B001A439DF818301B0242EA18
:10C4400003019DF81C301B04019A1943039B02F55C
:10C45000E07243F8221000BF05B05DF804FB00B5A0
:10C4600085B003900B468DF80B309DF80B30002201
:10C47000019200220092002200210398FFF7BEFFE4
:10C4800000BF05B05DF804FB00B585B0019001ABBD
:10C490001846FFF78DFF0390019A039B02F5E072A7
:10C4A00053F8223023F002030293019A039B02F512
:10C4B000E072029943F8221000BF05B05DF804FB5A
:10C4C00000B585B001900B468DF8033001AB1846DE
:10C4D000FFF76EFF0390019A039B02F5E07253F899
:10C4E0002230019A23F44031039B02F5E07243F8B5
:10C4F0002210019A039B02F5E07253F822309DF856
:10C50000032012041146019A1943039B02F5E072BD
:10C5100043F8221000BF05B05DF804FB00B585B0FC
:10C52000019001AB1846FFF743FF0390039800F01A
:10C5300020F80246019B22FA03F303F00103184698
:10C5400005B05DF804FB00B585B0019001AB18465D
:10C55000FFF72EFF0390019A039B02F5E07253F858
:10C5600022301B0C03F00303DBB2184605B05DF864
:10C5700004FB82B00190019BD3F81035184602B03D
:10C580007047000088B0039002910192164A05ABF3
:10C5900092E8030083E80300039B079319E0079BDD
:10C5A0009B0008AA134453F80C3CD3F82025019BA8
:10C5B0001A60079B9B0008AA134453F80C3C019A8D
:10C5C0001268C3F82025019B04330193079B0133B4
:10C5D0000793039A029B1344079A9A42DFD300BF42
:10C5E00000BF08B0704700BFD03D030000B585B064
:10C5F000019001AB1846FFF7DBFE0390019B01227F
:10C6000002FA03F31A46039BC3F8202500BF05B0C6
:10C610005DF804FB84B00190019B5B090293002349
:10C620000393029B002B03D0029B012B04D007E055
:10C630004FF0FF33039303E040F2FF33039300BF57
:10C64000019B03F01F030193039A019B22FA03F35A
:10C6500003F00103002B14BF01230023DBB21846B3
:10C6600004B0704784B001900091009B0393019B3C
:10C67000DB080293019B03F0070301930122019B56
:10C6800002FA03F30399029A0A44127813401846F7
:10C6900004B0704784B001900091009B0393019B0C
:10C6A000DB080293019B03F007030193039A029BAB
:10C6B00013441B785AB20121019B01FA03F35BB2C8
:10C6C000134359B2039A029B1344CAB21A7000BFB3
:10C6D00004B0704782B001900C4A019B1344303380
:10C6E00093F90030002B09DB084A019B13443033D7
:10C6F00093F90030072B01DC012300E0002303F055
:10C700000103DBB2184602B0704700BF845A002014
:10C7100082B00190064A019B1344303393F90030F4
:10C72000072BCCBF01230023DBB2184602B07047B1
:10C73000845A002082B00190064A019B1344303392
:10C7400093F90030DB43DBB2DB09DBB2184602B001
:10C75000704700BF845A002084B003900291019278
:10C760008DF80330029B59B20E4A039B13443033B9
:10C770000A461A700B49029B019A41F823209DF842
:10C78000033083F00103DBB2002B08D0029B083B8F
:10C79000039A51B2034A13440A4683F85A2000BF51
:10C7A00004B07047845A002082B00190044A019B73
:10C7B00013443033FF221A7000BF02B0704700BF2D
:10C7C000845A002000B583B0019004490198FFF716
:10C7D00061FF00BF03B05DF804FB00BFE25A002018
:10C7E00082B00190044A019B1344303393F9003026
:10C7F000184602B0704700BF845A002082B00190F2
:10C80000034A019B52F82330184602B0704700BF1C
:10C81000845A002084B00190074A019B13445A3384
:10C8200093F900308DF80F309DF80F3023F0C003DE
:10C83000184604B0704700BF845A002084B00190AD
:10C84000074A019B13445A3393F900308DF80F3097
:10C850009DF80F309B09DBB2184604B0704700BF4B
:10C86000845A002000B589B00390029113468DF8D8
:10C870000730FF238DF81F309DF80730002B01D0C3
:10C88000002300E0082305939DF80730002B01D01A
:10C89000082300E00C230493059B069314E00F4A41
:10C8A000069B52F82330B3F1FF3F0AD19DF80730C1
:10C8B000029A06990398FFF74FFF069B8DF81F30E9
:10C8C00006E0069B01330693069A049B9A42E6D340
:10C8D0009DF91F30184609B05DF804FB845A00200A
:10C8E00082B003468DF807309DF80730094A4FF0B3
:10C8F000FF3142F823109DF80730072B07D99DF828
:10C900000730083B034A1344FF2283F85A2000BF34
:10C9100002B07047845A002000B583B02D4B93F8C5
:10C920006430002B03D008230093009B4EE00023CB
:10C930008DF8073011E09DF807301846FFF76AFEC2
:10C940000346002B04D09DF807301846FFF72CFF54
:10C950009DF8073001338DF807309DF80730292BFB
:10C96000E9D900238DF8073009E09DF80730184613
:10C97000FFF7B6FF9DF8073001338DF807309DF8BB
:10C9800007300B2BF1D906220021134806F008FAD4
:10C990001248FFF70BFC034606211846FFF70EFC72
:10C9A0000E48FFF703FC03461846FFF733FC4FF42D
:10C9B000BE70FFF752FC4FF00040FFF777FC054BCD
:10C9C000012283F8642000230093009B184603B0E3
:10C9D0005DF804FB845A0020E25A00200060004009
:10C9E000044B93F86430002B14BF01230023DBB207
:10C9F00018467047845A002000B587B00390029112
:10CA000001920398FFF706FE0346002B04D1364936
:10CA10004FF40C7001F068FE002305930398FFF7B4
:10CA200089FE0346002B02D00823059357E0029BA2
:10CA30009B78C3F34003DBB21A4601990398FFF7D2
:10CA400011FF03468DF813309DF91330B3F1FF3F0A
:10CA500043D0029B9B78C3F38003DBB283F00103D6
:10CA6000DBB2002B13D0029B9B7803F00103DBB2F7
:10CA7000002B03D00398FFF707FD05E0029B5B78CE
:10CA800019460398FFF7EBFC0398FFF79BFE029B08
:10CA90009B7803F00203DBB2002B08D09DF9130052
:10CAA000029B1B781A460399FFF72EFC17E09DF9AD
:10CAB0001330083B0D4A134493F95A10029B1B781C
:10CAC0009B015AB29DF91330083B0A4351B2074A01
:10CAD00013440A4683F85A2001E004230593059B7A
