:020000021000EC
:1090000000600020A59301005D9301005F930100C3
:10901000619301006393010065930100000000006B
:109020000000000000000000000000006793010045
:1090300069930100000000006B9301006D93010033
:109040008DE601006F9301006F930100D9050200C6
:109050006F93010000000000EDF201006F9301002A
:109060006F9301006F9301006F9301006F930100F4
:109070006F9301006F9301006F9301006F930100E4
:109080006F930100BDBD01006F9301006F9301005C
:109090006F930100D5470200D14D02006F9301008C
:1090A0006F9301006F9301000000000000000000BA
:1090B0006F9301006F9301000000000000000000AA
:1090C00000000000000000000000000000000000A0
:1090D0000000000000000000000000000000000090
:1090E0000000000000000000000000000000000080
:1090F0000000000000000000000000000000000070
:10910000000000000000000000000000000000005F
:10911000000000000000000000000000000000004F
:10912000000000000000000000000000000000003F
:10913000000000000000000000000000000000002F
:10914000000000000000000000000000000000001F
:10915000000000000000000000000000000000000F
:1091600000000000000000000000000000000000FF
:1091700000000000000000000000000000000000EF
:1091800000000000000000000000000000000000DF
:1091900000000000000000000000000000000000CF
:1091A00000000000000000000000000000000000BF
:1091B00000000000000000000000000000000000AF
:1091C000000000000000000000000000000000009F
:1091D000000000000000000000000000000000008F
:1091E000000000000000000000000000000000007F
:1091F000000000000000000000000000000000006F
:10920000354936480A1A02D0072291438D4634491F
:1092100034480A1A06D00722914381F309880222B2
:1092200082F3148830483149314A00F044F831481B
:109230003149324A00F03FF831483249324A00F0B1
:109240003AF832483249334A00F035F83248334967
:10925000334A00F030F833483349344A00F02BF8F1
:1092600033483449344A00F026F83448344900225F
:1092700000F02CF833483449002200F027F8334836
:109280003349091A082902DB002202604160314A91
:1092900090471F481F49884205D00268043003B434
:1092A000904703BCF7E700208646EC4600200021EB
:1092B000294A9047FEE7884207D0521A05D0037822
:1092C00001300B700131013AF9D17047884202D068
:1092D00002700130FAE7704700600020005800205B
:1092E0000060002000600020807C0200C822002076
:1092F00040230020EC930100EC930100285F020062
:10930000807C0200C8220020C82200200C600200DD
:109310000C6002000C6002000C6002000C60020095
:109320000C6002000C6002000C6002007F7C0200F6
:10933000F87C02004023002040230020402300202E
:10934000FC2F0020FC2F0020FC2F0020FC2F0020F1
:10935000FC370020BB930100FD100200FEE7FEE792
:10936000FEE7FEE7FEE7FEE7FEE7FEE7FEE7FEE7D5
:1093700009480068094909680A280AD1002908D162
:10938000074802686FF070031A404FF040031A4319
:10939000026000F009B80000300100103401001034
:1093A000E40E0040FFF7E4BF0B484FF0070188438D
:1093B00085460A488047FFF723BF094809490A4AFA
:1093C000884207D0521A05D0037801300B70013162
:1093D000013AF9D1704700000060002045DA010031
:0C93E0000C600200C8220020C8220020FF
:1093EC0000B585B00190019B002B0AD0074B43F0D0
:1093FC0001030393019B9B010293039B02989847E3
:10940C0000E000BF05B05DF804FB00BF2060020067
:10941C0000B583B00190019B002B0AD04FF47A70F9
:10942C00FFF7DEFF019B013B0193019B002BF5D164
:10943C0000E000BF03B05DF804FB08B509F0C6F905
:10944C0000BF08BD00B589B0039002910192019B49
:10945C00002B33D00023079303230693029A079B18
:10946C001344019A1946002009F03AF90590079A1D
:10947C00059B13440793019A059BD31A0193059BF3
:10948C00002B13D10F4B1B7883F00103DBB2002BA5
:10949C0013D10120FFF7BCFF069B013B0693069BF3
:1094AC00002B03D1074B00221A7007E0054B012259
:1094BC001A70019B002BD1D100E000BF00BF09B096
:1094CC005DF804FB4023002000B585B003900291A9
:1094DC00054B00934023054A0299039800F012F8BB
:1094EC0000BF05B05DF804FB51940100442300203B
:1094FC0082B0019000BF02B0704782B0019000BFF3
:10950C0002B0704700B5A1B005900491039202938C
:10951C00049803F0BFFB039B1593029B1693002347
:10952C00179300238DF8603000231993229B1A9314
:10953C0000231F930FA91F9B0822049803F084FC9F
:10954C0008231F93119B1293BDF84030ADF84C309B
:10955C00BDF84230ADF84E3000238DF851309DF8F7
:10956C003C3003F00303DBB2012B26D10F9BC3F37A
:10957C0095231C939DF83C30C3F3C203DBB28DF8EA
:10958C005030BDF83C30C3F38313DBB21B931B9BF1
:10959C009A0009A91F9B049803F056FC1B9B9B0087
:1095AC001F9A13441F9312AA09A915AB00931346D3
:1095BC001B9A1C9800F0CAFE2FE09DF83C3003F07B
:1095CC000303DBB2022B28D1BDF83E30C3F3891361
:1095DC009BB21E939DF83C30C3F3C203DBB28DF8F3
:1095EC0050301E9B082B28BF08231D9307A91F9BD7
:1095FC001D9A049803F028FC1F9A1D9B13441F937B
:10960C001E9A1D9BD31A1E9315AB12AA07A81D995F
:10961C0000F03EFF1E9B002BE3D1049803F049FBA6
:10962C0000BF21B05DF804FB82B00190019BDB68A8
:10963C0001225A7100BF02B07047000000B583B020
:10964C004FF0FF330193FFF7F8FE0421084800F0B8
:10965C0099FD0190019B002B03DA0649412007F08C
:10966C006FF90348FFF7E0FF00BF03B05DF804FBA0
:10967C00FC5F02003860020000B583B001900091DD
:10968C00019B1B681B6800990198984700BF03B0A9
:10969C005DF804FB00B583B00190019B1B685B680F
:1096AC000198984700BF03B05DF804FB00B583B088
:1096BC000190019B1B689B680198984700BF03B001
:1096CC005DF804FB82B001900B468DF80330019BD2
:1096DC00DB689DF803201A7100BF02B0704782B09E
:1096EC000190019BDB681B79184602B0704782B071
:1096FC000190019BDB6801225A7100BF02B07047D8
:10970C0082B00190019BDB685B79184602B0704710
:10971C0000B585B0019000910C4B00221A700C48DA
:10972C0003F01CFA0390039B002B01D0039B08E071
:10973C00084803F02BFD084A084BD31ADB080293A8
:10974C000023184605B05DF804FB00BFEC24002094
:10975C00785F020094600200FC5F02008C5F0200E4
:10976C00024A034BD31ADB0818467047FC5F020011
:10977C008C5F020000B587B001900B468DF803306A
:10978C009DF80330002B1FD0FFF7EAFF0490002355
:10979C00059313E0059B9B000E4A13440393039B14
:1097AC001B881A46019B1B689A4204D1019B059A9F
:1097BC001A60002309E0059B01330593059A049B6D
:1097CC009A42E7D3052300E00023184607B05DF862
:1097DC0004FB00BFC822002000B585B001900B46E9
:1097EC008DF803309DF8032001AB11461846FFF7A6
:1097FC00C1FF0346002B07D1019BDB00054A134434
:10980C000393039B1B6800E00023184605B05DF82A
:10981C0004FB00BF8C5F020084B001900B468DF8F6
:10982C000330019BDB00174A134402939DF803306D
:10983C00013B032B1CD801A252F823F059980100CC
:10984C0061980100699801007398010002238DF85A
:10985C000F3011E004238DF80F300DE0029B1B79C3
:10986C008DF80F3008E0029B5B798DF80F3003E028
:10987C0000238DF80F3000BF9DF80F30184604B050
:10988C00704700BF8C5F020084B0019000910023F0
:10989C008DF80F30019B1B7803F00403DBB2002B17
:1098AC0024D0019B1B78C3F30103DBB2012B02D044
:1098BC00022B0CD017E0009B1B68019A1288C2F394
:1098CC008312D2B213449A1C009B1A600BE0009BCB
:1098DC001B68019A5288C2F3891292B213449A1CE3
:1098EC00009B1A6000BF01238DF80F309DF80F30DC
:1098FC00184604B07047000000B58BB00023ADF8DB
:10990C0026303E4802F036FC3D4802F033FC3D4B1D
:10991C009B6804933C4B1B680693049A069B13406C
:10992C0002339B00374A13440433089304AB1946A3
:10993C000898FFF7A9FF0346002B09D0049A069B51
:10994C00134002339B002F4A134404330893EDE772
:10995C0000BF0023079311E0049B5A1C0492069A43
:10996C001340079A920001A90A44264902339B002E
:10997C000B445B681360079B01330793079B012B18
:10998C00EAD99DF80430C3F30103DBB2012B10D0EC
:10999C00022B1CD1BDF80A30ADF82630BDF80630CC
:1099AC00C3F389139BB203339A08049B13440493A7
:1099BC0013E0BDF80A30ADF82630BDF80430C3F31F
:1099CC008313DBB21A46049B1344049305E00F493E
:1099DC004FF4C27006F0B4FF00BF094802F0D6FB8A
:1099EC000590059B002B02D0049B064A9360BDF8A2
:1099FC00263018460BB05DF804FB00BF042900208C
:109A0C0000290020EC240020D0220020A4600200B9
:109A1C0000B585B00021074802F023FB0390039B9F
:109A2C000293029B83F310030193019B184605B02C
:109A3C005DF804FB0829002000B589B00390029161
:109A4C0001920093039B1B0C0793FFF7E1FF069019
:109A5C00FFF786FE0246079B934204D3214940F24E
:109A6C00A91006F06DFF069B1904009B5A1C0A9B5B
:109A7C001340079A0A431C4902339B000B445A605B
:109A8C00009A0A9B134002339B00174A1344043379
:109A9C000593039B03F00703D9B2059A137861F37E
:109AAC00C5031370019B03F00F03D9B2059A1388F9
:109ABC0061F389131380029BC3F31501059A136894
:109ACC0061F39F231360059A1378012161F301035D
:109ADC001370059A13786FF38203137000BF09B0EB
:109AEC005DF804FBA4600200EC24002000B58DB0EE
:109AFC000390029113468DF80730039B02330A93AF
:109B0C0001238DF8273000238DF81B300DF11B033A
:109B1C00184601F021FD404B5A68029B1A603F4BDE
:109B2C001A683D4B99683C4B5B68CB1A1344013364
:109B3C000B9314E001213A4802F0EEFAFFF7DCFE39
:109B4C0007900799364802F0E7FA344B1A68324B03
:109B5C009968314B5B68CB1A134401330B930A9A07
:109B6C000B9B9A42E6D89DF82730002B48D0002357
:109B7C0005939DF80730002B17D09DF81430012267
:109B8C0062F301038DF814309DF8143043F0040394
:109B9C008DF81430039B03F00F03DAB2BDF81430C8
:109BAC0062F38913ADF8143016E09DF814300222DC
:109BBC0062F301038DF814309DF8143043F0040364
:109BCC008DF81430039BC3F309039AB2BDF8163019
:109BDC0062F38F13ADF816300F4B5A680F4B1B689E
:109BEC00134002339B000C4A134404330893059A28
:109BFC00089B1A60084B5A680A9B1344064A536028
:109C0C009DF81B30184601F0BDFC9DF82730184616
:109C1C000DB05DF804FB00BFEC240020D022002026
:109C2C000829002000B58BB0059004910392029393
:109C3C001F4B1B68079306AB012219460298FFF7CE
:109C4C0055FF0346002B24D0069B023309930023B7
:109C5C00089311E0089B9B00039A1A44099B591C1A
:109C6C00099107990B401268124902339B000B446F
:109C7C005A60089B01330893089A029B9A42E9D3D5
:109C8C00069A079B00931346029A04990598FFF7CE
:109C9C00D3FE084B1B78002B05D000BF00F068F8F2
:109CAC000346002BFAD100BF0BB05DF804FB00BFDC
:109CBC00D0220020EC24002000B583B0019000914C
:109CCC000023002200990198FFF7ACFF00BF03B0FE
:109CDC005DF804FB00B587B0039002910192019BE3
:109CEC00059305AA012302990398FFF79BFF00BF78
:109CFC0007B05DF804FB00B587B0039002910192A8
:109D0C000093019B0493009B059304AA02230299E0
:109D1C000398FFF787FF00BF07B05DF804FB00B5A1
:109D2C008BB00390029101920093019B0593009BD1
:109D3C0006930C9B07930D9B08930E9B099305AA06
:109D4C00052302990398FFF76DFF00BF0BB05DF878
:109D5C0004FB0000054B9A68044B5B689A420CBFED
:109D6C0001230023DBB21846704700BFEC2400200F
:109D7C0000B599B0FFF7EEFF0346002B01D000238E
:109D8C00C0E19B4B0022C3F81824BFF34F8F00BFD8
:109D9C00974B9B680493974B1B681093049A109BEA
:109DAC00134002339B00924A134404331193002353
:109DBC0017930023169300230F9304AB19461198A5
:109DCC00FFF762FD0346002B19D0894BD3F81834EA
:109DDC00002B14D1864B5A68049B9A4205D8844BAD
:109DEC005B68834A936000238CE1049A109B1340B8
:109DFC0002339B007E4A134404331193DDE70023A6
:109E0C00159311E0049B5A1C0492109A1340159A56
:109E1C00920001A90A44764902339B000B445B680B
:109E2C001360159B01331593159B012BEAD99DF8F3
:109E3C00043003F00303DBB2022B40F09C80BDF82E
:109E4C000630C3F389139BB20D93BDF80630C3F3F0
:109E5C0089139BB2502B28BF50239BB20C930C9BA5
:109E6C00C3F309039AB2BDF8063062F38F13ADF851
:109E7C0006300C9B08330B939DF80430C3F3C203DC
:109E8C00DBB20F930B995C4802F073FE1790179B93
:109E9C00002B00F0D380179802F0FCFE01A9169B52
:109EAC000822179802F0B2FF169B08331693049BF6
:109EBC00DA43109B134001339B000A930C9A0A9BC4
:109ECC009A4242D90A9B002B08D0049A109B13404B
:109EDC0002339B00464A1344043300E0474B08937B
:109EEC000A9B002B02D00A9BDBB201E00C9BDBB27D
:109EFC008DF81F300A9B002B01D0404B00E0002353
:109F0C0006930A9B002B06D00C9BDAB20A9BDBB2A1
:109F1C00D31ADBB200E000238DF817309DF81F2018
:109F2C00169B0899179802F071FF9DF81F30169A2E
:109F3C0013441693069B002B16D09DF81720169BE6
:109F4C000699179802F062FF0EE0049A109B1340DA
:109F5C0002339B00264A134404330993169B0C9A34
:109F6C000999179802F052FF0D9B03339A08049B32
:109F7C001344049362E09DF8043003F00303DBB256
:109F8C00012B5BD1BDF80430C3F38313DBB2062B7A
:109F9C0028BF0623DAB2BDF8043062F38913ADF89A
:109FAC000430BDF80430C3F38313DBB202330E93D9
:109FBC009DF80430C3F3C203DBB20F930E9B9B00DE
:109FCC0019460D4802F0D5FD1790179B002B35D084
:109FDC00179802F05FFE01A9169B0822179802F051
:109FEC0015FF169B08331693002315931DE000BF35
:109FFC00EC240020D0220020785F0200F8240020FE
:10A00C00049B5A1C0492109A134002339B003F4A43
:10A01C001344191D169B0422179802F0F7FE169B89
:10A02C0004331693159B01331593BDF80430C3F319
:10A03C008313DBB21A46159B9342E1D3179B002B7B
:10A04C0040D0324BD3F810341493304BD3F818342F
:10A05C00002B1BD0179802F02CFE4DE000238DF83E
:10A06C004F301498FFF74CFB0346002B02D0012312
:10A07C008DF84F309DF84F30002B03D01799149862
:10A08C00FFF7FAFA149BDB681B681493149B002BE4
:10A09C00E4D1179802F00DFE00238DF803300DF17A
:10A0AC000303184601F058FA184BD3F81834002B58
:10A0BC0002D1049B154A93609DF80330184601F0B9
:10A0CC0061FA19E0114BD3F81034129306E0129890
:10A0DC00FFF7ECFA129BDB681B681293129B002BA8
:10A0EC00F5D10B4A0B4BD31ADB081B0443F00203CC
:10A0FC0009491846FFF7E0FDFFF72CFE034683F0F5
:10A10C000103DBB2184619B05DF804FBEC24002007
:10A11C00AC5F02008C5F0200F860020000B585B0F5
:10A12C000023039323E0164BD3F81034029301233E
:10A13C008DF807300FE00298FFF7D1FA03461A4664
:10A14C00039B934203D100238DF8073006E0029B5A
:10A15C00DB681B680293029B002BECD19DF8073047
:10A16C00002B01D0039B07E0039B01330393039B5C
:10A17C00092BD8DD4FF0FF33184605B05DF804FB12
:10A18C00EC24002000B585B001900B468DF803300F
:10A19C00FFF7C4FF0390039BB3F1FF3F01D1039B77
:10A1AC0022E0039BDBB219460198FFF78BFA104BA8
:10A1BC00D3F81034002B08D10D4A019BC2F810348F
:10A1CC00019BDB6800221A600DE0094BD3F81034B8
:10A1DC00DA68019BDB6812681A60054BD3F81034FF
:10A1EC00DB68019A1A60039B184605B05DF804FB06
:10A1FC00EC24002000B583B00C4BD3F81034019341
:10A20C000A4B01221A7009E00198FFF770FA0198C5
:10A21C00FFF740FA019BDB681B680193019B002B45
:10A22C00F2D100BF00BF03B05DF804FBEC240020AA
:10A23C0082B00190009100BF02B0704710B584B09D
:10A24C0003900291039BDB88002B0AD0039BDB88D5
:10A25C001A461F4B009313461E4A1F49029802F0E0
:10A26C00D1F8039B1B7A052B2ED0039B5B7A002B1A
:10A27C0012D0039B9B881A46039B1B7A19461046E7
:10A28C00FFF7CAFA03461A46144B53F822301A4603
:10A29C001349029802F0B6F8039B1B681946029802
:10A2AC00FFF7C6FF039B1B7A1A460E4B53F822404E
:10A2BC00039B9B8800211846FFF78EFA0346224623
:10A2CC000949029802F09EF800BF04B010BD00BF0F
:10A2DC002C6102003C61020074610200E822002043
:10A2EC008C610200D42200209061020000B585B080
:10A2FC000390029113468DF80730039B1B7A052BB4
:10A30C000FD0039B5B7A002B06D00D4B1B681A46B3
:10A31C000C49029802F076F80B49029802F072F898
:10A32C0007E09DF80730002B03D00749029802F094
:10A33C0069F8029802F044F800BF05B05DF804FB20
:10A34C00E82200208C6102009C61020030B58BB0C9
:10A35C0007900691059204930E9B1B7B8DF827307A
:10A36C000E9B00221A730E990498FFF767FF059B4A
:10A37C00062B7FD801A252F823F000BFA5A3010041
:10A38C00AFA30100BFA30100D3A30100F1A30100FF
:10A39C0019A4010049A4010007990E9802F032F8A3
:10A3AC0069E0069B1B681A4607990E9802F02AF87A
:10A3BC0061E0069B1A68069B04331B6807990E988C
:10A3CC0002F020F857E0069B1A68069B04331968C4
:10A3DC00069B08331B6800930B4607990E9802F0F6
:10A3EC0011F848E0069B1968069B04331868069B15
:10A3FC0008331B68069A0C321268019200930346CC
:10A40C000A4607990E9801F0FDFF34E0069B186888
:10A41C00069B04331C68069B08331B68069A0C3297
:10A42C001268069910310968029101920093234633
:10A43C00024607990E9801F0E5FF1CE0069B1C688C
:10A44C00069B04331D68069B08331B68069A0C3266
:10A45C001268069910310968069814300068039048
:10A46C000291019200932B46224607990E9801F017
:10A47C00C9FF00E000BF00220E990498FFF736FFD9
:10A48C000E9B9DF827201A7300BF0BB030BD00BF88
:10A49C0000B587B00390029101920093029B082BA8
:10A4AC0060D8009B1B7B8DF81330009B00221A7325
:10A4BC0000990198FFF7C2FE0023059314E0059A5A
:10A4CC00029B9A4209D2039A059B13441B781A46A5
:10A4DC002649009801F096FF03E02549009801F009
:10A4EC0091FF059B01330593059B072BE7D9214968
:10A4FC00009801F087FF0023059326E0059A029B44
:10A50C009A421BD2039A059B13441B788DF8123088
:10A51C009DF812307E2B0AD89DF8123018460BF09D
:10A52C000FF90346002B02D09DF8123000E02E23C9
:10A53C001A461149009801F065FF03E00F49009895
:10A54C0001F060FF059B01330593059B072BD5D9C3
:10A55C00012200990198FFF7C9FE009B9DF813207A
:10A56C001A7300E000BF07B05DF804FBA0610200A5
:10A57C00A8610200AC610200B0610200B46102008B
:10A58C0084B003468DF807309DF807305B08DBB2CA
:10A59C001A460D4B9B5C8DF80F309DF8073003F07D
:10A5AC000103002B04D09DF80F301B09DBB204E033
:10A5BC009DF80F3003F00F03DBB28DF80E309DF8D1
:10A5CC000E30184604B070474029002084B0034672
:10A5DC000A468DF8073013468DF806309DF8073083
:10A5EC0003F00103002B01D00F2300E0F0238DF8C2
:10A5FC000F309DF8073003F00103002B04D09DF8B9
:10A60C0006301B01DBB201E09DF806308DF80E30F0
:10A61C009DF807305B08DBB21A46114B9A5C9DF82B
:10A62C0007305B08DBB219469DF80F301340DAB2E5
:10A63C000B4B5A549DF807305B08DBB21A46084B9B
:10A64C009A5C9DF807305B08DBB219469DF80E301A
:10A65C001343DAB2024B5A5400BF04B0704700BF28
:10A66C004029002000B585B003468DF80730002343
:10A67C00039310E00F4B1A68039BDB001344029307
:10A68C00029B1B789DF807209A4201D1029B0DE09A
:10A69C00039B01330393084B1B781A46039B93428D
:10A6AC00E8DB0649882006F04BF90023184605B074
:10A6BC005DF804FB0C29002010290020C461020065
:10A6CC0000B585B003460A468DF8073013468DF861
:10A6DC0006309DF807301846FFF7C4FF0390039B24
:10A6EC00002B0BD0039B5B68002B07D0039B5B6894
:10A6FC009DF806109DF807201046984700BF05B03E
:10A70C005DF804FB2DE9F04F87B003460A468DF83F
:10A71C000F3013468DF80E309DF80F301846FFF7AA
:10A72C002FFF0346042B00F2C28001A252F823F043
:10A73C0051A70100C5A70100E1A7010011A8010064
:10A74C0027A801009DF80E30002B00F0AD809DF87D
:10A75C000F3001211846FFF739FF00238DF8173011
:10A76C000DF11703184600F0F7FE9DF80F104FF08F
:10A77C0001024FF00003A1F12004C1F1200003FA03
:10A78C0001F702FA04F4274322FA00F0074302FA15
:10A79C0001F6494BD3E9002346EA020100913B4301
:10A7AC000193454BDDE90012C3E900129DF8173007
:10A7BC00184600F0E7FE77E09DF80E30002B01D034
:10A7CC00022200E000229DF80F3011461846FFF7D8
:10A7DC00FDFE6CE09DF80E30002B0CD09DF80F3078
:10A7EC0003211846FFF7F2FE9DF80F3001211846A1
:10A7FC00FFF766FF5BE09DF80F3001211846FFF76D
:10A80C00E5FE54E09DF80E30002B4FD19DF80F3033
:10A81C0004211846FFF7DAFE48E09DF80E30002BB5
:10A82C0006D09DF80F3003211846FFF7CFFE3EE00F
:10A83C009DF80F3000211846FFF7C8FE9DF80F3029
:10A84C0000211846FFF73CFF00238DF816300DF160
:10A85C001603184600F080FE9DF80F104FF0010211
:10A86C004FF00003A1F12006C1F1200003FA01F51D
:10A87C0002FA06F6354322FA00F0054302FA01F417
:10A88C006FEA04086FEA05090B4BD3E9002308EAC9
:10A89C00020A09EA030B084BC3E900AB9DF816301A
:10A8AC00184600F06FFE02E000BF00E000BF00BFE2
:10A8BC0007B0BDE8F08F00BF3829002000B583B089
:10A8CC000648074B1B685B080022194600F066FD22
:10A8DC00019000BF03B05DF804FB00BF18290020F5
:10A8EC001429002000B587B001900023059328E0BF
:10A8FC001C4B1A68059BDB0013440493049B1B78C8
:10A90C00184604F03DFC03468DF80F30049B5B7831
:10A91C00012B0CBF01230023DBB21A469DF80F302C
:10A92C009A420CBF012300238DF80E30049B1B7838
:10A93C009DF80E2011461846FFF7E4FE059B0133E7
:10A94C000593094B1B781A46059B9342D0DB074BAA
:10A95C00D3E90023134301D0FFF7B0FF00BF07B0CA
:10A96C005DF804FB0C290020102900203829002058
:10A97C0000B585B001900B468DF80330019BDBB21E
:10A98C001846FFF76FFE0390039B1B78184604F0E4
:10A99C00F7FB03468DF80B30039B5B78012B0CBF48
:10A9AC0001230023DBB21A469DF80B309A420CBFF0
:10A9BC00012300238DF80A309DF80A30002B06D0B5
:10A9CC00054BD3E90023134301D1FFF777FF00BFF9
:10A9DC0005B05DF804FB00BF3829002000B58BB032
:10A9EC0003900B4601928DF80B30019B092B01D87B
:10A9FC00072367E004F0B8FA034683F00103DBB2E7
:10AA0C00002B09D004F04CFA0990099B0893089B81
:10AA1C00002B01D0089B55E02C4A039B13602C4A59
:10AA2C009DF80B3013702B4A019B136010220021F0
:10AA3C0029480AF0D2FE29494FF000024FF00003DA
:10AA4C00C1E9002331E09DF80B30DB00039A13447D
:10AA5C00079303238DF8143000238DF815309DF8DF
:10AA6C0016306FF300038DF816309DF816306FF327
:10AA7C0041038DF816309DF816306FF382038DF874
:10AA8C001630079B9B788DF81530079B1B78184662
:10AA9C0005AB134A194604F073FA0990099B069307
:10AAAC00069B002B01D0069B0CE09DF80B305A1E28
:10AABC008DF80B20002BC6D10A4A00210A4800F061
:10AACC0039FC034618460BB05DF804FB0C2900203A
:10AADC0010290020142900204029002038290020AA
:10AAEC007DA90100F1A801001062020000B583B03D
:10AAFC00114B1B68002B04D1104940F2351005F0A6
:10AB0C001FFF002301930CE00B4B1A68019BDB0029
:10AB1C0013441B780121184604F0AEFA019B013353
:10AB2C000193074B1B781A46019B9342ECD30023ED
:10AB3C00184603B05DF804FB0C290020C461020028
:10AB4C001029002086B003900291019201238DF808
:10AB5C0017309DF81730204A039B13601E4A029B46
:10AB6C0053601D4A019B9360039B44F20102934284
:10AB7C0012D0039B44F20202934220D1019B164A4D
:10AB8C00D360154BDB681B68134A9361124BDB686F
:10AB9C005B68114AD36112E0019B0F4A13610E4BA3
:10ABAC001B699B680C4A53610B4B1B691B680A4A57
:10ABBC009361094B1B695B68074AD36100BF72B68E
:10ABCC0000BF00BF9DF81730DBB2002BFAD162B684
:10ABDC0000BF00BF06B070475029002000B583B0FD
:10ABEC0002900091019244F2010071466A4600F015
:10ABFC0003F803B000BD00BF30B58BB007900691D1
:10AC0C00059272B600BFFFF7F5FA00BFFFF7B0F878
:10AC1C000346002BFAD1079B44F2020293422FD039
:10AC2C00079B44F20202934269D8079B44F201024B
:10AC3C00934237D0079B44F2010293425FD8079BA3
:10AC4C00012B05D0079B41F2010293420CD056E038
:10AC5C00394A3A4BD31ADB081B0443F00103384939
:10AC6C001846FFF729F857E0334A344BD31ADB0860
:10AC7C001B0443F0010333491846FFF71DF84BE062
:10AC8C00059B09932C4A2D4BD31ADB081B0443F06C
:10AC9C000100099B5B681A46099B1B682A49FFF750
:10ACAC002AF839E0059B0893234A244BD31ADB0876
:10ACBC001B0443F00104089B9D68089B9B68184685
:10ACCC0002F084FB03461846089B5B681946089BF8
:10ACDC001B68069A02920193009103462A461B496F
:10ACEC002046FFF71CF8144A144BD31ADB081B043C
:10ACFC0043F0010316491846FEF7DEFF0CE00E4A3E
:10AD0C000E4BD31ADB081B0443F00103069A1149BE
:10AD1C001846FEF7DFFF00BF0F4B1B6803F0010363
:10AD2C00002B00D000BE059A06990798FFF70AFF82
:10AD3C0000BF0BB030BD00BFAC5F02008C5F0200E7
:10AD4C001462020034620200586202007462020053
:10AD5C009C620200B0620200F0ED00E02DE9F043CD
:10AD6C0083B0144801F009F8034600221C4615462E
:10AD7C00114BD3E9002314EB020845EB0309CDE991
:10AD8C0000890E4BD3E90023DDE90001904271EB01
:10AD9C00030307D2DDE9002312F1807643F10007AB
:10ADAC00CDE90067DDE900231046194603B0BDE884
:10ADBC00F08300BF0C23002078290020802900207C
:10ADCC0088B001900091019B0793009B0693079B11
:10ADDC00D3E90223CDE90423069BD3E90223CDE971
:10ADEC000223DDE90423DDE90201904271EB030348
:10ADFC002CBF01230023DBB2184608B070470000BB
:10AE0C00F0B585B00190019B5B69002B03D12B49F8
:10AE1C00A22005F095FD00238DF80F30284B1B78F0
:10AE2C00002B45D0019B002B42D0019B1B7FDBB23A
:10AE3C00002B3DD0FFF792FF019BD3E902239042F8
:10AE4C0071EB03032CD3019B1B69002B02D1019BDB
:10AE5C0000221A77019B5B69019A92691046984708
:10AE6C00019B1B69002B23D0019B1B7FDBB2002BAA
:10AE7C001ED0019BD3E902230199096900200C46DD
:10AE8C000546161943EB0507019BC3E90267019BB5
:10AE9C0019460C4802F0F4F901238DF80F3007E045
:10AEAC00019B1946074802F0EBF901238DF80F308E
:10AEBC009DF80F30184605B0F0BD00BFD4620200FB
:10AECC007429002024630200F0B589B00190009130
:10AEDC000D230793009B00221A70019BD3E90245B6
:10AEEC00FFF73CFF02460B46A61A65EB0307CDE9BC
:10AEFC000467DDE90423012A73F100031BDB049BC7
:10AF0C00B3F5350F05D300F0A9FA0246154B1344DF
:10AF1C0003E0019BD3E90223134603934FF49603FA
:10AF2C00039A0021104800F01BFE0790079B002B92
:10AF3C0005D1012313E000210B4800F0E9FE079B2B
:10AF4C000D2B07D10198FFF75BFF03461A46009BB8
:10AF5C001A7003E00549F52005F0F2FC00231846B1
:10AF6C0009B0F0BDFFFFB4000C230020D462020036
:10AF7C0000B583B0044802F0BDF90190019B18465E
:10AF8C0003B05DF804FB00BF2463020000B583B07E
:10AF9C00044802F0D1F90190019B184603B05DF80A
:10AFAC0004FB00BF2463020000B583B0FFF7E0FF91
:10AFBC000190019B002B02D0019B00221A77019B70
:10AFCC00002BF3D100BF00BF03B05DF804FB000001
:10AFDC00054BD3E9002312F1807043F10001024BC1
:10AFEC00C3E9000100BF70477829002010B582B07A
:10AFFC000190124B1B68002B1DD0019800F0BDFE78
:10B00C0004460021019800F0A9FE0346194620468B
:10B01C0000F018FA0346B3F5960F04D308494FF421
:10B02C00957005F08DFC054B1B681846FFF7E8FE84
:10B03C00024B00221A6000BF02B010BD7029002024
:10B04C00D462020000B583B00190FFF787FE024680
:10B05C000B460349C1E9002300BF03B05DF804FBB4
:10B06C008029002000B585B00190FFF78FFF039079
:10B07C0000238DF80B30039B002B48D02B4B1B6807
:10B08C00002B03D101238DF80B3019E0039BD3E97E
:10B09C000201264B1B68D3E90223904271EB030398
:10B0AC000ED201238DF80B30204B1B681B7FDBB2BB
:10B0BC00002B05D01D4B1B6819461D4802F0E0F80B
:10B0CC009DF80B30002B2AD0FFF752FF03900DF1A7
:10B0DC000A0319460398FFF7F7FE0346002B12D01C
:10B0EC00124B1B68002B02D1019800F045FC0F4A53
:10B0FC00039B13609DF80A3083F00103DBB2002B35
:10B10C00B3D000BF0EE0094B00221A60ADE7074B2D
:10B11C001B68002B05D1019800F044FC01E000BF36
:10B12C0000E000BF00BF05B05DF804FB70290020F3
:10B13C002463020000B587B001902C4A03AB19467A
:10B14C00104600F018FF059048E0059B1B78022B79
:10B15C002ED0022B32DC002B02D0012B14D02DE090
:10B16C00059B5B681B7FDBB283F00103DBB2002B1A
:10B17C0026D0059B5B6801221A77059B5B681946F4
:10B18C001B4802F07DF81BE0059B5A68194B1B68A5
:10B19C009A4203D1174B00221A6012E0059B5B68A0
:10B1AC001946134802F0DCF803468DF8133008E01A
:10B1BC00FFF7FAFE104B01221A7002E000BF00E00C
:10B1CC0000BF0A4A03AB1946104600F0EDFE074AD1
:10B1DC0003AB1946104600F0CEFE0590059B002BE4
:10B1EC00B3D100BF00BF07B05DF804FBE02900201D
:10B1FC0024630200702900207429002000B583B05C
:10B20C000190019800F077FD0346002B01D0FFF769
:10B21C00DFFE0021019800F08CFD0346002B02D0CC
:10B22C000198FFF7E3FE0121019800F082FD03462F
:10B23C00002B02D00198FFF705FF0198FFF77AFF6A
:10B24C000198FFF70FFF00BF03B05DF804FB00008F
:10B25C0008B5024800F09EFD00BF08BD0C2300207D
:10B26C0000B585B0034600918DF80730114A02AB4A
:10B27C001946104600F052FE0390039B002B13D08E
:10B28C00039B9DF807201A70039B009A5A60094A89
:10B29C0002AB1946104600F05AFE0346002B01D0B3
:10B2AC00FFF7D6FF002300E00423184605B05DF835
:10B2BC0004FB00BFE029002000B583B0164B1B68CF
:10B2CC000093164808235822154900F0F4FD01900C
:10B2DC00019B002B01D0019B19E06B46114A1946CA
:10B2EC00114800F0CBFA0190019B002B01D0019B7F
:10B2FC000DE001210C4800F0EDFC01230B4A01216B
:10B30C00094800F065FB0A4B01221A70019B184694
:10B31C0003B05DF804FB00BF20630200E0290020AD
:10B32C008829002009B201000C230020FFFF7F00B8
:10B33C007429002000B587B003900B4601928DF85C
:10B34C000B30039B002B04D1134940F22E2005F047
:10B35C00F7FA019B002B04D10F4940F22F2005F086
:10B36C00EFFA019B002B01D1072310E0039B1B6814
:10B37C000593059B019A5A619DF80B30012B0CBF6C
:10B38C0001230023DBB21A46059B1A6100231846E1
:10B39C0007B05DF804FB00BFD4620200F0B587B0C3
:10B3AC00039002910192039B002B04D1164940F2A9
:10B3BC003E2005F0C5FA039B0593059B1B7FDBB272
:10B3CC00002B01D000231CE0059B019A9A61FFF72A
:10B3DC00C5FC02460B46029900200C460546161980
:10B3EC0043EB0507059BC3E90267059B1B69002B13
:10B3FC0002D0059B029A1A6105990020FFF730FFD5
:10B40C000346184607B0F0BDD462020000B585B003
:10B41C000190019B002B04D109494FF4157005F0E4
:10B42C008FFA019B0393039B00221A770399012047
:10B43C00FFF716FF0346184605B05DF804FB00BF86
:10B44C00D462020082B001900091019A009BD31A41
:10B45C0023F07F43184602B07047000008B503483C
:10B46C0000F08BFC0346184608BD00BF0C230020DF
:10B47C0082B0EFF310830093009B019372B600BF70
:10B48C00019B184602B0704762B600BF00BF704700
:10B49C0000B585B00190FFF7EBFF0390164B9B684E
:10B4AC00002B1BD1144B01229A60144BD3F8802033
:10B4BC00134B1340104A1360104B114AC3F88020F1
:10B4CC000E4BD3F884300C4A53600C4B4FF0FF32C8
:10B4DC00C3F88420019B00221A7002E0019B012218
:10B4EC001A70039B002B01D1FFF7CEFF00231846E7
:10B4FC0005B05DF804FB00BFF429002000E100E07A
:10B50C00FC06FFBD00B585B003468DF80730104B27
:10B51C009B68002B16D09DF80730002B12D1FFF73B
:10B52C00A7FF03900B4A0A4B1B681360094A084B90
:10B53C005B685360064B00229A60039B002B01D181
:10B54C00FFF7A2FF0023184605B05DF804FB00BF0F
:10B55C00F429002000E100E000B583B0019000F078
:10B56C002BF80346012B03D00549432005F0E8F9DD
:10B57C000198FFF78DFF00BF03B05DF804FB00BF1F
:10B58C003063020000B583B003468DF8073000F03D
:10B59C0013F80346012B03D00649512005F0D0F9CE
:10B5AC009DF807301846FFF7ADFF00BF03B05DF8FC
:10B5BC0004FB00BF3063020084B0EFF305830193FA
:10B5CC00019BC3F308030393039B002B0DD1EFF3F3
:10B5DC0014830093009B0293029B03F00103002B46
:10B5EC000CBF01230023DBB200E00123184604B09A
:10B5FC007047000082B003468DF807309DF9073084
:10B60C00002B0CDB9DF8073003F01F0205499DF958
:10B61C0007305B09012000FA02F241F8232000BF39
:10B62C0002B0704700E100E082B003468DF80730AD
:10B63C009DF90730002B0DDB9DF8073003F01F023E
:10B64C0006499DF907305B09012000FA02F24033EC
:10B65C0041F8232000BF02B0704700BF00E100E0BA
:10B66C0082B0034600918DF807309DF90730002B0E
:10B67C000ADB009BDAB20C499DF907305201D2B2B9
:10B68C000B4483F800230BE0009BDAB207499DF8CA
:10B69C00073003F00F03043B5201D2B20B441A766D
:10B6AC0000BF02B0704700BF00E100E000ED00E019
:10B6BC0000B583B003460A468DF8073013468DF863
:10B6CC0006309DF80630012B03D99DF80630032B6C
:10B6DC000BD99DF80630042B03D99DF80630072BA7
:10B6EC0003D908496B2005F02BF99DF806209DF92C
:10B6FC00073011461846FFF7B3FF00BF03B05DF8E3
:10B70C0004FB00BF8063020000B583B003468DF8D4
:10B71C0007309DF907301846FFF76CFF00BF03B0E8
:10B72C005DF804FB00B585B00190019B002B0AD09D
:10B73C00074B43F001030393019B9B010293039B73
:10B74C000298984700E000BF05B05DF804FB00BF0D
:10B75C008064020084B0039002910192039B029AD0
:10B76C0002F5A872019943F8221000BF04B070478B
:10B77C0082B001900091019B009A02F5A87253F8D7
:10B78C002230184602B0704782B001900091019BA4
:10B79C00009AC3F8042300BF02B0704782B0019036
:10B7AC000091019B009AC3F8082300BF02B07047B8
:10B7BC0082B001900B46ADF80230BDF80230019A10
:10B7CC0013441B68184602B0704784B001900B46B6
:10B7DC00ADF80230BDF80230019A134400221A6011
:10B7EC00BDF80230019A13441B680393039B00BFFE
:10B7FC0004B0704782B00190019BD3F80435184611
:10B80C0002B0704700B583B001900091009BB3F576
:10B81C00805F04D306494FF4BE7005F091F8019B8C
:10B82C00009AC3F8082500BF03B05DF804FB00BF05
:10B83C00B063020082B001900B468DF803309DF886
:10B84C000320019B13441A460123136000BF02B06E
:10B85C00704782B001900091019B009AC3F8442379
:10B86C0000BF02B0704782B001900091019B009A1A
:10B87C00C3F8482300BF02B07047000000B587B082
:10B88C00039002910192039B002B03D13349552065
:10B89C0005F056F8029B002B03D13049562005F0D9
:10B8AC004FF8019B002B03D12C49572005F048F889
:10B8BC00039B5B7919462A4A019B42F82130039B72
:10B8CC005B79284ADB0013441B79002B0ED008232C
:10B8DC000593254A254BD31ADB081B0443F00203BE
:10B8EC0023491846FEF7E8F9059B32E0039B1A68DA
:10B8FC00029B1B8819461046FFF784FF039B93F9A4
:10B90C000420029B9B7819461046FFF7D1FE039B3F
:10B91C0093F904301846FFF7F7FE039B5B79114A45
:10B92C00DB00134401221A71039B5B7919460D4A03
:10B93C00039B42F83130002305930B4A0B4BD31A6F
:10B94C00DB081B0443F003030A491846FEF7B4F95D
:10B95C00059B184607B05DF804FB00BFE0630200CE
:10B96C00002A0020042A0020BC5F02008C5F020029
:10B97C00286402004C64020000B583B00190019B66
:10B98C00002B03D10649872004F0DAFF019B1B68CA
:10B99C0000211846FFF74EFF00BF03B05DF804FB13
:10B9AC00E063020000B583B00190019B002B03D132
:10B9BC0006498D2004F0C4FF019B1B680421184626
:10B9CC00FFF738FF00BF03B05DF804FBE063020033
:10B9DC0000B587B00390029101928DF80330039B60
:10B9EC00002B03D12149962004F0AAFF4FF480329A
:10B9FC00029B02FA03F30593029B50339BB29B000C
:10BA0C00ADF81230019B23F07F430193039B1B681D
:10BA1C0005991846FFF7C2FE039B1B68059918464B
:10BA2C00FFF721FF039B1B68BDF812201146184637
:10BA3C00FFF7CBFE039B1B68019A02991846FFF790
:10BA4C0089FE039B1B6805991846FFF702FF9DF8BA
:10BA5C000330002B05D0039B1B6805991846FFF794
:10BA6C0093FE00BF07B05DF804FB00BFE06302006B
:10BA7C0000B585B00390029113468DF80730039BF7
:10BA8C00002B03D10B49A92004F05AFF039B1B6820
:10BA9C0002991846FFF7DDFE9DF80730002B05D004
:10BAAC00039B1B6802991846FFF76EFE00BF05B09A
:10BABC005DF804FBE063020000B583B001900091D7
:10BACC00019B002B03D10A49B32004F039FF019BE1
:10BADC001B6800991846FFF7C6FE019B1B6800996E
:10BAEC001846FFF75BFE00BF03B05DF804FB00BF18
:10BAFC00E063020000B583B001900B46ADF8023054
:10BB0C00019B002B03D10F49BA2004F019FF019BB4
:10BB1C001B68BDF8022011461846FFF749FE034684
:10BB2C00002B09D0019B1B68BDF80220114618465A
:10BB3C00FFF74BFE012300E00023184603B05DF82D
:10BB4C0004FB00BFE063020082B001900091019AF7
:10BB5C00009BD31A23F07F43184602B070470000B5
:10BB6C0000B58BB00390029101920093039B002BC4
:10BB7C0003D15749CD2004F0E3FE4FF48032029BF1
:10BB8C0002FA03F30993029B50339BB29B00ADF86E
:10BB9C002230019B23F07F43019309990398FFF70F
:10BBAC008BFF039B1B681846FFF724FE0790039B33
:10BBBC001B6802991846FFF7DBFD0690039B1B6878
:10BBCC00079A02991846FFF7C5FD039B1B68BDF841
:10BBDC00222011461846FFF7F8FD07990698FFF743
:10BBEC00B3FF0346012B0AD11020FFF79BFD039BEB
:10BBFC001B68BDF8222011461846FFF7E6FD039B93
:10BC0C001B681846FFF7F6FD079007990198FFF798
:10BC1C009BFF0590039B1B6809991846FFF719FEBB
:10BC2C00059B012B15D1039B1868019B01331A4608
:10BC3C000299FFF78FFD1020FFF774FD039B1B6823
:10BC4C001846FFF7D7FD0246079B934235D00D23CC
:10BC5C0039E0039B1B68019A02991846FFF77AFD9D
:10BC6C00039B1B681846FFF7C5FD0790019B013B22
:10BC7C0007991846FFF768FF0590009BC3F1FF1367
:10BC8C0003F57F43059A9A4201D90D231BE0059BCE
:10BC9C00002B12D1039B1868019B01331A460299A1
:10BCAC00FFF758FD039B1B681846FFF7A3FD0246E0
:10BCBC00079B934201D00D2305E0012209990398BB
:10BCCC00FFF7D6FE002318460BB05DF804FB00BF4F
:10BCDC00E063020000B583B001900B468DF8033091
:10BCEC009DF803301A4602210198FFF7C1FE00BFF0
:10BCFC0003B05DF804FB00B583B001904FF4827182
:10BD0C000198FFF7F7FE0346184603B05DF804FBF5
:10BD1C0000B583B0019000914FF48032009B02FA81
:10BD2C0003F319460198FFF7C7FE00BF03B05DF897
:10BD3C0004FB00B585B001900091009B50339BB281
:10BD4C009B00ADF80E30BDF80E3019460198FFF788
:10BD5C00D1FE0346184605B05DF804FB00B583B070
:10BD6C0001900091019B1B6800991846FFF700FD9C
:10BD7C000346184603B05DF804FB00B583B0019090
:10BD8C00019B1B681846FFF735FD0346184603B0A8
:10BD9C005DF804FB00B583B00190019B93F904306E
:10BDAC001846FFF741FC00BF03B05DF804FB000030
:10BDBC0008B5044B1B68044A12681046984700BF2C
:10BDCC0008BD00BF002A0020042A002086B0019084
:10BDDC000091019B53E8011F8AB2D88902449889CB
:10BDEC00824228BF121A1889824202BFBFF32F8FDA
:10BDFC00002307E0C2EA010243E801200028E9D150
:10BE0C004FF001038DF80F30059002910492029AC5
:10BE1C00009B1A609DF80F30DBB2184606B07047D5
:10BE2C0084B00190019951E8013FC3EA034341E812
:10BE3C000132002AF7D10392029300BF04B070477D
:10BE4C0086B001900091019B53E8021F1FFAA1F2EA
:10BE5C00D888824202BFBFF32F8F00230DE0D88910
:10BE6C0002449889824228BF121AC1EA024243E86E
:10BE7C0002200028E8D14FF001038DF80F30059017
:10BE8C0002910492029A009B1A609DF80F30DBB26B
:10BE9C00184606B0704784B00190019951E8023FF2
:10BEAC00C3EA234341E80232002AF7D103920293FA
:10BEBC0000BF04B0704784B00390029111461A463B
:10BECC000B46ADF806301346ADF80430029B002B40
:10BEDC0001D10E231FE0BDF80630BDF80420B3FBE2
:10BEEC00F2F101FB02F29B1A9BB2002B01D0092349
:10BEFC0011E0039B029A1A60039B00225A60039B79
:10BF0C0000229A60039BBDF806209A81039BBDF822
:10BF1C000420DA810023184604B0704700B585B0C0
:10BF2C0001900091009B19460198FFF74FFF0346C3
:10BF3C00002B07D0019B1B68009A128813440393B3
:10BF4C00039B00E00023184605B05DF804FB00B528
:10BF5C0083B001900091009B1A88009B5B889A42E9
:10BF6C0004D10198FFF75CFF012300E00023184681
:10BF7C0003B05DF804FB00B585B001900091009B07
:10BF8C0019460198FFF75CFF0346002B07D0019B75
:10BF9C001B68009A528813440393039B00E0002310
:10BFAC00184605B05DF804FB00B583B00190009114
:10BFBC00009B1A88009B5B889A4204D10198FFF77A
:10BFCC006AFF012300E00023184603B05DF804FB70
:10BFDC0000B585B001900091009B5B099B00019A14
:10BFEC001A44009B03F01F03012101FA03F31946C5
:10BFFC00104600F04CF8039000BF05B05DF804FB50
:10C00C0000B585B001900091009B5B099B00019AE3
:10C01C001A44009B03F01F03012101FA03F3DB43D5
:10C02C001946104600F061F8039000BF05B05DF8AA
:10C03C0004FB82B001900091009B5B099B00019A6C
:10C04C0013441A68009B03F01F0322FA03F303F056
:10C05C000103002B14BF01230023DBB2184602B0EE
:10C06C00704710B487B001900091019B009A53E87F
:10C07C00004F104643E8000191F0000FF7D10594F2
:10C08C0004900391059B184607B010BC704710B480
:10C09C0087B001900091019B009A53E8004F44EA4D
:10C0AC00020043E8000191F0000FF6D105940490D2
:10C0BC000391049B184607B010BC704710B487B0AE
:10C0CC0001900091019B009A53E8004F04EA020092
:10C0DC0043E8000191F0000FF6D105940490039110
:10C0EC00059B184607B010BC704710B487B0019080
:10C0FC000091019B009A53E8004F04EA020043E8C8
:10C10C00000191F0000FF6D1059404900391049B6B
:10C11C00184607B010BC704710B487B0019000915E
:10C12C00019B009A53E8004F04EB020043E8000126
:10C13C0091F0000FF6D1059404900391049B1846DE
:10C14C0007B010BC704710B487B001900091019BF0
:10C15C00009A53E8004FA4EB020043E8000191F071
:10C16C00000FF6D1059404900391049B184607B078
:10C17C0010BC704700B583B0019001210198FFF706
:10C18C0086FF0346184603B05DF804FB00B583B088
:10C19C00019000210198FFF791FF0346184603B068
:10C1AC005DF804FB00B583B001900B468DF80330AD
:10C1BC00019B002B03D10849E82004F0C1FB019B33
:10C1CC00DA689DF803300199098A01FB03F31344E3
:10C1DC00184603B05DF804FB8864020000B583B018
:10C1EC0001900091019B002B03D10849F52004F02C
:10C1FC00A7FB009B019AD2689B1A019A128AB3FB87
:10C20C00F2F3DBB2184603B05DF804FB886402005D
:10C21C0000B585B00190019B002B01D10E234CE0A1
:10C22C00019B1B68002B03D12649FF2004F088FBDF
:10C23C00019B5B68002B04D122494FF4807004F001
:10C24C007FFB019B9B68002B04D11E4940F201101F
:10C25C0004F076FB019BDB68002B04D119494FF4E9
:10C26C00817004F06DFB019B1B8A002B04D11549D6
:10C27C0040F2031004F064FB019B9A68019B5B681D
:10C28C00D31A8DF80F30019B1B68019A52681A6003
:10C29C0007E0019B1A681368591C11609DF80F2068
:10C2AC001A709DF80F305A1E8DF80F20002BF0D10C
:10C2BC00019B1B6800221A710023184605B05DF81B
:10C2CC0004FB00BF8864020000B585B00190019B9F
:10C2DC00002B04D11F494FF4927004F031FB002362
:10C2EC00039300238DF80A300DF10A031846FFF76B
:10C2FC0033F9019B1B681A68019B5B689A421FD932
:10C30C00019B1B681A68013A1A601B681B78194656
:10C31C000198FFF747FF0390019B9A68019B1B68EC
:10C32C001B68D31A8DF80B30019B1B681B799DF889
:10C33C000B209A4204D9019B1B689DF80B201A71A3
:10C34C009DF80A301846FFF71DF9039B184605B0F7
:10C35C005DF804FB8864020010B584B00190009174
:10C36C00019B002B04D1154940F2471004F0E8FA68
:10C37C00009B002B04D111494FF4A47004F0E0FA97
:10C38C00009B039300238DF80B300DF10B03184623
:10C39C00FFF7E2F8019B1B681C68621C1A6003998A
:10C3AC000198FFF71BFF034623709DF80B301846CE
:10C3BC00FFF7E8F800BF04B010BD00BF88640200AE
:10C3CC0000B583B00190019B002B03D10C493120A7
:10C3DC0004F0B6FA019B9B68002B0CD0019B5B69A7
:10C3EC00019A1069019A1168019A92689847019B09
:10C3FC0000229A6000E000BF03B05DF804FB00BFB0
:10C40C00D46402000EB400B584B00190019B002BE3
:10C41C0003D11849422004F093FA019B5B69002B6D
:10C42C0003D11449432004F08BFA019B1B68002BA9
:10C43C0003D11049442004F083FA019B5B68002B64
:10C44C0003D10C49452004F07BFA059B002B0AD044
:10C45C000023039306AB039303AB1A46059901988B
:10C46C0000F0B8F900E000BF04B05DF804EB03B0D5
:10C47C00704700BFD464020000B583B001900B4636
:10C48C008DF803309DF803300A2B03D10D21019850
:10C49C00FFF7F2FF019B1A68019B9B68581C0199DE
:10C4AC00886013449DF803201A70019B9A68019BC5
:10C4BC005B689A4202D30198FFF782FF00BF03B07A
:10C4CC005DF804FB00B587B00390029101920093D4
:10C4DC0000230593009B03F00103002B24D00BE0F9
:10C4EC00029B01330293059B013305939DF8133096
:10C4FC0019460398FFF7C0FF029B1B788DF8133089
:10C50C009DF81330002BEBD106E0019B013B01930E
:10C51C0020210398FFF7B0FF019A059B9A422ED970
:10C52C00019B002BF1D12AE0029B002B0BD002982F
:10C53C0009F0A8F9059006E0019B013B019320212D
:10C54C000398FFF799FF019A059B9A420FD9019B1B
:10C55C00002BF1D10BE0029B01330293059B0133BD
:10C56C0005939DF8133019460398FFF785FF029B3E
:10C57C001B788DF813309DF81330002BEBD100BFD6
:10C58C0007B05DF804FB000000B589B00390029180
:10C59C0001920093029B07930123069307E0079AED
:10C5AC00019BB2FBF3F30793069B01330693079AA7
:10C5BC00019B9A42F3D2009A069B9A4201D9009BA6
:10C5CC0006930B9B03F00103002B22D10A9B002B3B
:10C5DC001FD00B9B03F00203002B06D0009B002BFB
:10C5EC0003D130238DF8173002E020238DF817305B
:10C5FC0008E00A9B013B0A939DF8173019460398F3
:10C60C00FFF73AFF0A9B002B03D0069A0A9B9A422B
:10C61C00EFD301230793009B012B03D9009B013B14
:10C62C00009309E0029A079BB2FBF3F30493049A7C
:10C63C00019B9A4200D205E0079B019A02FB03F38F
:10C64C000793E8E7029A079BB2FBF3F30493049B6E
:10C65C00079A02FB03F3029AD31A0293154A049B1E
:10C66C0013441B7819460398FFF706FF079A019BA2
:10C67C00B2FBF3F30793079B002BE3D10B9B03F067
:10C68C000103002B11D00A9B002B0ED006E00A9B55
:10C69C00013B0A9320210398FFF7EEFE0A9B002B27
:10C6AC0003D0069A0A9B9A42F1D300BF09B05DF8F9
:10C6BC0004FB00BF6065020000B589B005900491D1
:10C6CC0003920293049B002BB8BF5B420693012399
:10C6DC00079307E0039B069A92FBF3F30693079BE1
:10C6EC0001330793039B069A9A42F3DA029A079B4B
:10C6FC009A4201D9029B07930A9B002B0AD0049BF8
:10C70C00002B04DB0B9B03F00403002B02D00A9BD1
:10C71C00013B0A930B9B03F00203002B02D0029BFC
:10C72C00002B16D00B9B03F00103002B11D10A9B9D
:10C73C00002B0ED006E00A9B013B0A9320210598A2
:10C74C00FFF79AFE0A9B002B03D0079A0A9B9A428A
:10C75C00F1D3049B002B07DA049B5B4204932D213D
:10C76C000598FFF789FE08E00B9B03F00403002BF0
:10C77C0003D02B210598FFF77FFE0B9B03F00203E0
:10C78C00002B19D00B9B03F00103002B14D1029B3F
:10C79C00002B11D10A9B002B0ED006E00A9B013B0B
:10C7AC000A9330210598FFF767FE0A9B002B03D0F4
:10C7BC00079A0A9B9A42F1D304990B9B01930A9B0B
:10C7CC000093029B039A0598FFF7DEFE00BF09B0A9
:10C7DC005DF804FB00B58FB0059004910392059BA6
:10C7EC00002B04D1AD4940F2522004F0A9F8059B6E
:10C7FC005B69002B04D1A9494FF4157004F0A0F823
:10C80C00059B1B68002B04D1A44940F2552004F071
:10C81C0097F8059B5B68002B04D1A04940F2562089
:10C82C0004F08EF8049B002B00F09381049B1B7882
:10C83C008DF83730049B013304939DF83730002B6F
:10C84C0000F07E819DF83730252B40F06D81002360
:10C85C000A9301230C93049B1B788DF837309DF8B9
:10C86C003730302B0DD0302B1BDC2B2B11D02D2B3C
:10C87C0017D10A9B43F001030A93049B01330493E1
:10C88C0012E00A9B43F002030A93049B01330493C6
:10C89C000AE00A9B43F004030A93049B01330493BC
:10C8AC0002E000230C9300BF0C9B002BD3D1002380
:10C8BC0009939DF837302A2B0CD1039B1B68191D4B
:10C8CC00039A11601B68099A13440993049B013362
:10C8DC0004931AE0049B1B788DF837309DF83730A1
:10C8EC002F2B12D99DF83730392B0ED8049B0133DE
:10C8FC000493099A13469B0013445B001A469DF857
:10C90C0037301344303B0993D3E700230B93049B3C
:10C91C001B788DF837309DF837302E2B1DD1049BAA
:10C92C0001330493049B1B788DF837309DF8373016
:10C93C002F2B12D99DF83730392B0ED8049B01338D
:10C94C0004930B9A13469B0013445B001A469DF804
:10C95C0037301344303B0B93E4E7049B1B788DF882
:10C96C0037309DF837306C2B03D09DF83730682B5F
:10C97C0007D1049B01330493049B1B788DF837304B
:10C98C00EFE79DF83730252B00F0C480252BC0F243
:10C99C00C680782B00F3C380582BC0F2C080583B64
:10C9AC00202B00F2BC8001A252F823F0ADCA01008A
:10C9BC002BCB01002BCB01002BCB01002BCB01008F
:10C9CC002BCB01002BCB01002BCB01002BCB01007F
:10C9DC002BCB01002BCB01003DCA01005FCA01002B
:10C9EC002BCB01002BCB01002BCB01002BCB01005F
:10C9FC005FCA01002BCB01002BCB01002BCB01001C
:10CA0C002BCB01002BCB01002BCB0100EDCA01007D
:10CA1C002BCB01002BCB0100D1CA01002BCB010089
:10CA2C0083CA01002BCB01002BCB0100ADCA010046
:10CA3C00039B1B68191D039A11601B680C930C9BBC
:10CA4C008DF81F309DF81F3019460598FFF714FD1F
:10CA5C0066E0039B1B68191D039A11601B680C93FD
:10CA6C000A9B0193099B00930B9B0A220C99059836
:10CA7C00FFF722FE54E0039B1B68191D039A1160FB
:10CA8C001B680C930C990A9B0193099B00930B9BBD
:10CA9C000A220598FFF778FD42E000BF18650200F6
:10CAAC00039B1B68191D039A11601B680C930C994E
:10CABC000A9B0193099B00930B9B10220598FFF78F
:10CACC0063FD2DE0039B1B68191D039A11601B6805
:10CADC0008930A9B099A08990598FFF7F3FC1FE045
:10CAEC00039B1B68191D039A11601B680C93302162
:10CAFC000598FFF7C1FC78210598FFF7BDFC0C9950
:10CB0C000023019308230093082310220598FFF7B4
:10CB1C003BFD05E025210598FFF7AEFC00E000BFCA
:10CB2C00049B0133049305E09DF8373019460598B2
:10CB3C00FFF7A2FC049B1B78002B7FF477AE00E080
:10CB4C0000BF059B1B7B002B04D00598FFF738FC1E
:10CB5C0000E000BF0FB05DF804FB00BF00B583B070
:10CB6C0001900198FFF754FB0346184603B05DF89B
:10CB7C0004FB00B58BB001900091019B1B8A043B18
:10CB8C000793009A079B1344DA1C079BB2FBF3F341
:10CB9C008DF81B300198FFF797FB0590059B002B38
:10CBAC0001D1002338E0059B00221A71059B01225C
:10CBBC005A71079B9AB2059BDA80059B09939DF8E5
:10CBCC001B30013B0493099B019A1A6000230893C4
:10CBDC001DE00198FFF778FB0390039B002B0ED010
:10CBEC00059B5B790133DAB2059B5A71099B039A59
:10CBFC001A60039B019A1A60039B099304E0059841
:10CC0C0000F00EF8002307E0089B01330893089A04
:10CC1C00049B9A42DDD3059B18460BB05DF804FBD0
:10CC2C0000B58BB00190019B0793079B5B798DF846
:10CC3C001B30019B08939DF81B30013B059300238F
:10CC4C00099305E0089B1B680893099B0133099322
:10CC5C00099A059B9A42F5D3089B1B680493019B88
:10CC6C000893002309930BE0089B1B680393089916
:10CC7C000498FFF771FB039B0893099B01330993FD
:10CC8C009DF81B30099A9A42EED300BF00BF0BB03F
:10CC9C005DF804FB00B585B00190019B0393039BE9
:10CCAC00043301211846FFF737FA00BF05B05DF8D1
:10CCBC0004FB00B587B00190019B0593059B0433E1
:10CCCC0001211846FFF73FFA0346039303AB049385
:10CCDC00049B1B78002B02D10198FFF7A1FF00BF2A
:10CCEC0007B05DF804FB000000B591B00390029111
:10CCFC0001920093039B002B03D14349B62003F010
:10CD0C001FFE039B0993039B0F93099BDB881A4619
:10CD1C00099B5B7902FB03F3043B0893009A089B85
:10CD2C009A4203D33849C42003F00AFE099BDB88DE
:10CD3C000793009B1A1D079BB2FBF3F30E93009B0A
:10CD4C000433079AB3FBF2F2079901FB02F29B1A28
:10CD5C000D93019B1A68009B1344089A9A4203D2C4
:10CD6C00089A009BD31A01E0019B1B680C93019B52
:10CD7C000C9A1A6005E00F9B1B680F930E9B013BEE
:10CD8C000E930E9B002BF6D100230B93079A0D9B51
:10CD9C00D31A0A930A9A0C9B934228BF13460A9300
:10CDAC002AE0029A0B9B134406930F9A0D9B134493
:10CDBC00043305939DF84830002B05D00A9A059949
:10CDCC00069808F0E1FC04E00A9A0699059808F028
:10CDDC00DBFC00230D930F9B1B680F930C9A0A9B93
:10CDEC00D31A0C930B9A0A9B13440B93079A0C9B24
:10CDFC00934228BF13460A930C9B002BD1D100BF42
:10CE0C0000BF11B05DF804FB7065020000B589B07D
:10CE1C000590049103920293039B079307AA0023A6
:10CE2C000093029B04990598FFF75EFF079B039AFA
:10CE3C009A4203D00349F62003F082FD00BF09B0EB
:10CE4C005DF804FB7065020000B589B00590049193
:10CE5C0003920293039B079307AA01230093029B5F
:10CE6C0004990598FFF740FF079B039A9A4204D058
:10CE7C0004494FF4807003F063FD00BF09B05DF806
:10CE8C0004FB00BF70650200BFF34F8F00BF064B61
:10CE9C00DB6803F4E0620449044B1343CB60BFF33B
:10CEAC004F8F00BF00BFFDE700ED00E00400FA0566
:10CEBC0000B583B00190019B002B03D10449C42021
:10CECC0003F03EFD019B5B68184603B05DF804FB64
:10CEDC00BC65020000B583B00190019B002B03D10F
:10CEEC000649722003F02CFD019B00221A60BFF34F
:10CEFC005F8F00BF00BF03B05DF804FB106602003B
:10CF0C0000B585B00190019B002B03D10A49852007
:10CF1C0003F016FD01210198FFF7A3F80390BFF36E
:10CF2C005F8F00BF039B002B0CBF01230023DBB2E0
:10CF3C00184605B05DF804FB1066020000B583B01E
:10CF4C000190019B002B03D10A49922003F0F8FCBD
:10CF5C00019B1B68012B03D00649932003F0F0FCC6
:10CF6C00BFF35F8F00BF019B00221A6000BF03B0AC
:10CF7C005DF804FB1066020033DF704700BF1846F3
:10CF8C0041DF704700BF18464FF080430122C3F8C1
:10CF9C000025BFF34F8F00BF20BFFDE708B5044B42
:10CFAC001B78002B02D0042000F0B4F800BF08BDA1
:10CFBC00142A002000B583B00190FFF7EFFF00BFEB
:10CFCC0003B05DF804FB000000B583B00B4A0121EF
:10CFDC000B48FEF7AFF90190019B002B01D0019B90
:10CFEC0007E0084B00224FF480411846FEF7D6F9B3
:10CFFC000346184603B05DF804FB00BFC1CF010027
:10D00C00B0660200202A002008B5074B00221A70D7
:10D01C000648FFF75FFF0649064800F0D5F8FFF712
:10D02C00D3FF0346184608BD142A0020102A0020FE
:10D03C00A4660200182A002000B583B007F094FE05
:10D04C000346002B0ED0FFF79BFF0190019B002B9A
:10D05C000BD0019B022B08D006494FF4B07003F0A3
:10D06C006FFC02E020BF40BF20BF00BF03B05DF8E3
:10D07C0004FB00BF5466020000B583B00FE02248E9
:10D08C00FFF716FF0190019B1B68204A127810468F
:10D09C0098470346002B32D01B4800F0BFF81A48C3
:10D0AC00FFF706FF0346002BE9D1FDF7A3F800BFFD
:10D0BC00FCF75EFE0346002BFAD1144B1B78032BB6
:10D0CC0003D0124B1B78022B01D1FFF7DDFE07F0CA
:10D0DC004BFE0346002B0FD0FFF74EFF0090009B3A
:10D0EC00002B07D0009B022B04D009494FF4D170C0
:10D0FC0003F026FC20BFFDE7FFF746FF00E000BF72
:10D10C0003B05DF804FB00BF182A00200C2A002095
:10D11C005466020000B583B003468DF807301748FB
:10D12C00FFF7EEFE034683F00103DBB2002B21D1A7
:10D13C009DF80730042B0ED0114B1B78002B03D01D
:10D14C000E48FFF7FBFE16E00E4A9DF807301370F1
:10D15C000B4B01221A700A4B1B78002B04D10A4985
:10D16C0040F2D51003F0ECFBFFF786FF0348FFF706
:10D17C00E5FE00E000BF03B05DF804FB102A0020C0
:10D18C00142A00200C2A00205466020082B0019060
:10D19C00019B9B6800229A60019B9B6800221A618C
:10D1AC00019B9B6800225A61019B9B680022DA60FC
:10D1BC00019B9B6800225A60019B9B6800221A60AD
:10D1CC0000BF02B07047000000B583B00190009121
:10D1DC00019B002B03D11049502003F0B1FB009BA5
:10D1EC00002B03D10C49512003F0AAFB019B009AA0
:10D1FC001A60019B1B681A68019B5A60019B5A6854
:10D20C00019B1B685B689A4202D1019B00225A6009
:10D21C0000BF03B05DF804FBB466020000B583B038
:10D22C000190019B002B03D11449632003F088FB70
:10D23C00019B1B68002B03D11049642003F080FB79
:10D24C00019B5B68002B14D0019B5B681A46019B09
:10D25C001B689B6813441A46019B5A60019B5A68D1
:10D26C00019B1B685B689A4204D1019B00225A60A7
:10D27C0000E000BF03B05DF804FB00BFB466020021
:10D28C0000B585B001900091019B002B03D118498A
:10D29C003A2003F055FB009B002B03D114493B2093
:10D2AC0003F04EFB019B5B6803930FE0019B9B68B3
:10D2BC00039A1268009910469847034683F00103BD
:10D2CC00DBB2002B07D1039B1B680393039B1B68EA
:10D2DC00002BEBD100E000BF039B1A68009B1A6087
:10D2EC00039B009A1A6000BF05B05DF804FB00BFF9
:10D2FC002467020000B585B00190019B002B03D17F
:10D30C000C49512003F01CFB019B5B681B680393C9
:10D31C00019B5B681B68002B06D0019B5B681A683D
:10D32C00019B5B6812681A60039B184605B05DF898
:10D33C0004FB00BF2467020000B583B00190019B81
:10D34C00002B03D105495D2003F0FAFA019B5B68C1
:10D35C001B68184603B05DF804FB00BF246702008D
:10D36C0000B585B001900091019B002B03D11649AB
:10D37C00692003F0E5FA009B002B03D112496A20C7
:10D38C0003F0DEFA00238DF80B30019B5B680393EE
:10D39C000FE0039B1B68009A9A4207D1009B1A6806
:10D3AC00039B1A6001238DF80B3006E0039B1B686E
:10D3BC000393039B1B68002BEBD19DF80B30184695
:10D3CC0005B05DF804FB00BF2467020000B585B012
:10D3DC000190019800F00EF80390039B002B01D0F4
:10D3EC00039B00E0024B184605B05DF804FB00BF40
:10D3FC007467020086B00190164B0593164B04938C
:10D40C001FE0049A059BD31ADB10DA0F13445B1050
:10D41C00DB00059A13440393039B1B680293029A47
:10D42C00019B9A4202D9039B04930AE0029A019B46
:10D43C009A4203D2039B0833059302E0039B5B687B
:10D44C0004E0059A049B9A42DBD30023184606B0ED
:10D45C00704700BF746B02009C6C0200BFF34F8FCF
:10D46C0000BF064BDB6803F4E0620449044B134332
:10D47C00CB60BFF34F8F00BF00BFFDE700ED00E0B6
:10D48C000400FA0582B01B4B1B68B3F1FF3F0AD1B5
:10D49C00194B1B68DBB20193184B1B681B0903F07B
:10D4AC000F03009305E0134B1B680193144B1B688F
:10D4BC000093019B062B19D1009B033B032B13D824
:10D4CC0001A252F823F000BFE5D40100E9D4010019
:10D4DC00EDD40100F1D40100012308E0012306E0A2
:10D4EC00012304E0012302E0012300E0002318469D
:10D4FC0002B0704730010010E00F00F0E80F00F0B0
:10D50C003401001082B0154B1B68DBB20193144B35
:10D51C001B681B0903F00F030093019B062B19D109
:10D52C00009B033B032B13D801A252F823F000BF3E
:10D53C004DD5010051D5010055D5010059D501003B
:10D54C00012308E0002306E0002304E0002302E0AE
:10D55C00002300E00023184602B07047E00F00F0F3
:10D56C00E80F00F082B0234B1B68B3F1FF3F0AD1E8
:10D57C00214B1B68DBB20193204B1B681B0903F08A
:10D58C000F03009305E01B4B1B6801931C4B1B689E
:10D59C000093019B062B19D1009B033B032B13D843
:10D5AC0001A252F823F000BFC5D50100C9D5010076
:10D5BC00CDD50100D1D50100012318E0012316E0DF
:10D5CC00012314E0012312E0012310E0019B0A2B3C
:10D5DC000CD1009B002B03D0009B012B02D003E04D
:10D5EC00012304E0012302E0012300E0002318469C
:10D5FC0002B0704730010010E00F00F0E80F00F0AF
:10D60C003401001082B0154B1B68DBB20193144B34
:10D61C001B681B0903F00F030093019B062B19D108
:10D62C00009B033B032B13D801A252F823F000BF3D
:10D63C004DD6010051D6010055D6010059D6010036
:10D64C00012308E0002306E0002304E0002302E0AD
:10D65C00002300E00023184602B07047E00F00F0F2
:10D66C00E80F00F082B0234B1B68B3F1FF3F0AD1E7
:10D67C00214B1B68DBB20193204B1B681B0903F089
:10D68C000F03009305E01B4B1B6801931C4B1B689D
:10D69C000093019B062B19D1009B033B032B13D842
:10D6AC0001A252F823F000BFC5D60100C9D6010073
:10D6BC00CDD60100D1D60100012318E0012316E0DC
:10D6CC00012314E0012312E0012310E0019B0A2B3B
:10D6DC000CD1009B002B03D0009B012B02D003E04C
:10D6EC00012304E0012302E0012300E0002318469B
:10D6FC0002B0704730010010E00F00F0E80F00F0AE
:10D70C003401001082B0154B1B68DBB20193144B33
:10D71C001B681B0903F00F030093019B062B19D107
:10D72C00009B033B032B13D801A252F823F000BF3C
:10D73C004DD7010051D7010055D7010059D7010031
:10D74C00012308E0002306E0002304E0002302E0AC
:10D75C00002300E00023184602B07047E00F00F0F1
:10D76C00E80F00F082B0154B1B68DBB20193144B31
:10D77C001B681B0903F00F030093019B062B19D1A7
:10D78C00009B033B032B13D801A252F823F000BFDC
:10D79C00ADD70100B1D70100B5D70100B9D7010051
:10D7AC00012308E0002306E0002304E0002302E04C
:10D7BC00002300E00023184602B07047E00F00F091
:10D7CC00E80F00F082B0234B1B68B3F1FF3F0AD186
:10D7DC00214B1B68DBB20193204B1B681B0903F028
:10D7EC000F03009305E01B4B1B6801931C4B1B683C
:10D7FC000093019B062B19D1009B033B032B13D8E1
:10D80C0001A252F823F000BF25D8010029D801004D
:10D81C002DD8010031D80100002318E0002316E0B8
:10D82C00012314E0012312E0012310E0019B0A2BD9
:10D83C000CD1009B002B03D0009B012B02D003E0EA
:10D84C00012304E0012302E0012300E00023184639
:10D85C0002B0704730010010E00F00F0E80F00F04C
:10D86C0034010010002318467047000082B01B4B97
:10D87C001B68B3F1FF3F0AD1194B1B68DBB2019354
:10D88C00184B1B681B0903F00F03009305E0134BA7
:10D89C001B680193144B1B680093019B062B19D139
:10D8AC00009B033B032B13D801A252F823F000BFBB
:10D8BC00CDD80100D1D80100D5D80100D9D80100AC
:10D8CC00012308E0012306E0012304E0012302E028
:10D8DC00012300E00023184602B07047300100100D
:10D8EC00E00F00F0E80F00F03401001082B0234B81
:10D8FC001B68B3F1FF3F0AD1214B1B68DBB20193CC
:10D90C00204B1B681B0903F00F03009305E01B4B16
:10D91C001B6801931C4B1B680093019B062B19D1B0
:10D92C00009B033B032B13D801A252F823F000BF3A
:10D93C004DD9010051D9010055D9010059D9010027
:10D94C00012318E0012316E0012314E0012312E067
:10D95C00012310E0019B0A2B0CD1009B002B03D060
:10D96C00009B012B02D003E0012304E0012302E021
:10D97C00012300E00023184602B07047300100106C
:10D98C00E00F00F0E80F00F03401001082B0134BF0
:10D99C001B680193124B1B680093019B062B19D13A
:10D9AC00009B033B032B13D801A252F823F000BFBA
:10D9BC00CDD90100D1D90100D5D90100D9D90100A7
:10D9CC00002308E0002306E0002304E0012302E02A
:10D9DC00012300E00023184602B07047300100100C
:10D9EC003401001082B00D4B1B6801930C4B1B686B
:10D9FC000093019B0A2B0CD1009B002B03D0009BA6
:10DA0C00012B02D003E0002304E0012302E00123F8
:10DA1C0000E00023184602B0704700BF3001001030
:10DA2C0034010010024B034A1A6000BF704700BF5C
:10DA3C00142300200090D00308B5FFF723FD034604
:10DA4C00002B06D0BD4B1B681B0ABD4A03F01F03FD
:10DA5C001360FFF757FD0346002B02D0B94BBA4AAF
:10DA6C001A60FFF77FFD0346002B06D0B74B1B68EF
:10DA7C005B0BB74A03F007031360FFF7C3FD0346C4
:10DA8C00002B05D0B34BDB68B24A23F08073D36014
:10DA9C00FFF7E8FD0346002B0ED04FF08043002229
:10DAAC00C3F80C214FF080430022C3F810214FF033
:10DABC0080430022C3F83825FFF724FE0346002BD1
:10DACC0002D0A54B03221A60FFF74CFE0346002B35
:10DADC000BD0A24B05221A60A14B01221A60A14B5C
:10DAEC0000221A60A04B3F221A60FFF76BFE034620
:10DAFC00002B76D04FF080539C4AD3F80434C2F8F4
:10DB0C0020354FF08053994AD3F80834C2F82435A5
:10DB1C004FF08053954AD3F80C34C2F828354FF0A7
:10DB2C008053924AD3F81034C2F82C354FF08053FE
:10DB3C008E4AD3F81434C2F830354FF080538B4AE8
:10DB4C00D3F81834C2F834354FF08053874AD3F8E1
:10DB5C001C34C2F840354FF08053844AD3F820343B
:10DB6C00C2F844354FF08053804AD3F82434C2F8BD
:10DB7C0048354FF080537D4AD3F82834C2F84C35E1
:10DB8C004FF08053794AD3F82C34C2F850354FF00B
:10DB9C008053764AD3F83034C2F854354FF0805362
:10DBAC00724AD3F83434C2F860354FF080536F4A60
:10DBBC00D3F83834C2F864354FF080536B4AD3F83D
:10DBCC003C34C2F868354FF08053684AD3F840347F
:10DBDC00C2F86C354FF08053644AD3F84434C2F821
:10DBEC007035FFF73FFE0346002B03D0604BFB2242
:10DBFC00C3F81825FFF73AFE0346002B05D05D4B02
:10DC0C001B685D4A03F04F031360FFF76FFE03467A
:10DC1C00002B0DD04FF08043D3F8003403F00103F8
:10DC2C00002B05D04FF080436FF00102C3F80024A5
:10DC3C00FFF7ACFE0346002B05D0504B1B684F4A38
:10DC4C0043F480631360FFF7CDFE0346002B05D031
:10DC5C00494B1B68484A43F00F0313604FF01023E5
:10DC6C00D3F80032002B05DB4FF01023D3F804322D
:10DC7C00002B2BDA424B0122C3F8042500BF404B8A
:10DC8C00D3F80034002BFAD04FF010231522C3F830
:10DC9C00002200BF3A4BD3F80034002BFAD04FF0DF
:10DCAC0010231522C3F8042200BF354BD3F80034DF
:10DCBC00002BFAD0324B0022C3F8042500BF304BA6
:10DCCC00D3F80034002BFAD0FFF7C8FB2D4B1B68A0
:10DCDC0003F00103002B05D12B4B1B6803F0010350
:10DCEC00002B27D0264B0122C3F8042500BF244B60
:10DCFC00D3F80034002BFAD0224B00221A6000BF5C
:10DD0C001F4BD3F80034002BFAD01F4B00221A60A3
:10DD1C0000BF1B4BD3F80034002BFAD0184B002259
:10DD2C00C3F8042500BF164BD3F80034002BFAD0EF
:10DD3C00FFF794FBFFF776FE00BF08BD240300102D
:10DD4C004035014074C007400DF0ADBA44020010DC
:10DD5C003C050040F0ED00E0A005004010560040EE
:10DD6C0088560040185600401456004000C0004031
:10DD7C0000F0004058020010E40E00403C17004038
:10DD8C0000E00140001200100412001000B583B036
:10DD9C000190019B1B68184600F0B5F80346002B58
:10DDAC0004D105494FF4F67002F0CAFD4FF0A043C0
:10DDBC00184603B05DF804FB9C6C020000B585B0FE
:10DDCC000190084611461A4603468DF803300B465F
:10DDDC008DF8023013468DF8013001AB1846FFF771
:10DDEC00D5FF03909DF803209DF802305B001A4389
:10DDFC009DF801309B001A439DF818301B0242EA33
:10DE0C0003019DF81C301B04019A1943039B02F576
:10DE1C00E07243F8221000BF05B05DF804FB00B5BA
:10DE2C0085B003900023019300230093002301226B
:10DE3C0001210398FFF7C2FF00BF05B05DF804FB9A
:10DE4C0000B585B003900B468DF80B309DF80B3068
:10DE5C000022019200220092002200210398FFF779
:10DE6C00ADFF00BF05B05DF804FB00B585B00190B7
:10DE7C0001AB1846FFF78AFF0390019B012202FABF
:10DE8C0003F31946039800F02AF800BF05B05DF8BB
:10DE9C0004FB00B585B0019001AB1846FFF776FF87
:10DEAC000390019B012202FA03F31946039800F038
:10DEBC0020F800BF05B05DF804FB00B583B00190FD
:10DECC000091009B002B03D10198FFF7E2FF02E0C9
:10DEDC000198FFF7CAFF00BF03B05DF804FB82B0E6
:10DEEC0001900091019B009AC3F8082500BF02B075
:10DEFC00704782B001900091019B009AC3F80C25E9
:10DF0C0000BF02B0704784B00190019B5B09029383
:10DF1C0000230393029B002B03D14FF0FF33039399
:10DF2C0000BF019B03F01F030193039A019B22FA8C
:10DF3C0003F303F00103002B14BF01230023DBB216
:10DF4C00184604B07047000000B583B00190019BE7
:10DF5C00012B03D90749412002F0F2FC064A019B30
:10DF6C0013441B7801211846FFF7A7FF00BF03B02D
:10DF7C005DF804FBCC6C02000C6D020000B583B0A4
:10DF8C000190019B012B03D90749472002F0D8FCD3
:10DF9C00064A019B13441B7800211846FFF78DFF9E
:10DFAC0000BF03B05DF804FBCC6C02000C6D0200EA
:10DFBC0000B583B00023019305E00198FFF7DEFF65
:10DFCC00019B01330193019B012BF6D900BF00BFCC
:10DFDC0003B05DF804FB000000B583B0002301938F
:10DFEC0009E0094A019B13441B781846FFF717FFF9
:10DFFC00019B01330193019B012BF2D9FFF7D8FF51
:10E00C0000BF03B05DF804FB0C6D020000B583B0DB
:10E01C000023019307E0142303211846FFF710FF98
:10E02C00019B01330193019B002BF4D000BF00BF77
:10E03C0003B05DF804FB84B001904FF0FF33029302
:10E04C00002303930AE014231A46019B934202D146
:10E05C00039B029305E0039B01330393039B002B6B
:10E06C00F1D0029B184604B0704700B583B0019004
:10E07C00019B03F00103002B01D0FFF7ADFF019BC7
:10E08C0003F00203002B01D0FFF7C0FF00BF03B069
:10E09C005DF804FB82B003468DF807309DF907301C
:10E0AC00002B13DB9DF8073003F01F0209499DF983
:10E0BC0007305B09012000FA02F2203341F82320DB
:10E0CC00BFF34F8F00BFBFF36F8F00BF00BF02B015
:10E0DC00704700BF00E100E0044BD3F80034002B84
:10E0EC0014BF01230023DBB2184670470000014027
:10E0FC0008B506F039FE034683F00103DBB2002BB2
:10E10C0003D109497B2002F01BFCFFF7E5FF034616
:10E11C0083F00103DBB2002B04D000F091FA034B27
:10E12C0000229A7000BF08BD186D0200402A002022
:10E13C0000B583B000230193184B1B78002B02D041
:10E14C00852301931CE0154B00229A60134B00228F
:10E15C005A60124B00221A61104B0022DA601048F0
:10E16C0000F034FA019006F0FFFD034683F0010342
:10E17C00DBB2002B01D000F04FFA084B01221A70D1
:10E18C00FFF7AAFF0346002B02D0044B01229A7022
:10E19C00019B184603B05DF804FB00BF402A002029
:10E1AC0085E2010084B00190019B1B680393039BE3
:10E1BC00002B03D0039B1A68019B1A60039B184623
:10E1CC0004B0704700B583B0164B1B78002B04D1FC
:10E1DC00154940F2171002F0B3FB124BDB68002B11
:10E1EC0004D111494FF48C7002F0AAFB00238DF876
:10E1FC0007300DF107031846FDF7AEF9094BDB6844
:10E20C00013B084AD360074BDB68002B01D1FFF7B9
:10E21C006FFF9DF807301846FDF7B4F900BF03B047
:10E22C005DF804FB402A0020186D020000B585B093
:10E23C0003468DF807309DF80730002B02D10C4BAC
:10E24C00039301E00B4B03930398FFF7ABFF029092
:10E25C00029B002B06D0029B5B689DF807201046A2
:10E26C009847F1E700BF00BF05B05DF804FB00BFA5
:10E27C00482A0020502A002000B583B003468DF8B0
:10E28C0007309DF80730002B05D10A4B01225A703C
:10E29C000020FFF7CBFF9DF80730012B05D1054B74
:10E2AC0001229A700120FFF7C1FF00BF03B05DF897
:10E2BC0004FB00BF402A002000B583B00190009100
:10E2CC00019B002B05D1054B01225A700020FFF752
:10E2DC00ADFF00BF03B05DF804FB00BF402A002077
:10E2EC0000B585B0034600918DF807309DF80730D6
:10E2FC00032B29D0032B35DC002B02D0012B04D0AF
:10E30C0030E00020FFF7C6FE2DE000238DF80F3023
:10E31C000DF10F031846FDF71FF9154B1B7883F011
:10E32C000103DBB2002B01D0FFF702FF104BDB68BF
:10E33C0001330F4AD3600E4B01229A709DF80F30B7
:10E34C001846FDF71FF90EE0094B1B78002B04D182
:10E35C00084940F2522002F0F3FA00F05DF9FFF7A1
:10E36C0031FF00E000BF00BF05B05DF804FB00BF4B
:10E37C00402A0020186D020082B003468DF8073049
:10E38C009DF90730002B0CDB9DF8073003F01F02C2
:10E39C0005499DF907305B09012000FA02F241F8AA
:10E3AC00232000BF02B0704700E100E082B00346BA
:10E3BC0000918DF807309DF90730002B0ADB009B8C
:10E3CC00DAB20C499DF907305201D2B20B4483F8F2
:10E3DC0000230BE0009BDAB207499DF8073003F0ED
:10E3EC000F03043B5201D2B20B441A7600BF02B0A9
:10E3FC00704700BF00E100E000ED00E082B001904A
:10E40C00019B1B0B5BB2184602B0704700B583B082
:10E41C0003460A468DF8073013468DF806309DF8F2
:10E42C000630012B03D99DF80630032B0BD99DF830
:10E43C000630042B03D99DF80630072B03D9084965
:10E44C006B2002F07DFA9DF806209DF907301146ED
:10E45C001846FFF7ABFF00BF03B05DF804FB00BF2D
:10E46C00646D020000B583B003468DF807309DF94A
:10E47C0007301846FFF780FF00BF03B05DF804FBC0
:10E48C0082B003468DF807300F4A9DF90730002BF8
:10E49C0000DA1F335B115BB252F823209DF9073071
:10E4AC00594203F01F0301F01F0158BF4B425BB2EE
:10E4BC0022FA03F303F00103002B14BF0123002302
:10E4CC00DBB2184602B0704700E100E082B0019068
:10E4DC004FF08042019BC2F8083300BF02B0704776
:10E4EC0082B003468DF807309DF8073003F1804366
:10E4FC0001221A6000BF02B0704784B00346ADF829
:10E50C000630BDF8063003F1804300221A60BDF8D6
:10E51C00063003F180431B680393039B00BF04B0D8
:10E52C00704782B00346ADF80630BDF8063003F1F3
:10E53C0080431B68002B14BF01230023DBB2184659
:10E54C0002B0704782B001904FF08042019BC2F83C
:10E55C00183500BF02B070474FF08043D3F8183421
:10E56C001B0C03F00103002B14BF01230023DBB2AF
:10E57C001846704700B583B006238DF807304FF06E
:10E58C008040FFF73BFF03461846FFF779FF034631
:10E59C0083F00103DBB2002B13D04FF08040FFF768
:10E5AC002DFF03461A469DF8073019461046FFF713
:10E5BC002DFF4FF08040FFF721FF03461846FFF771
:10E5CC0051FF00BF03B05DF804FB000000B585B03F
:10E5DC000190019B002B03D10D49A42002F0B0F94E
:10E5EC00002303930B4B1B79002B02D08523039341
:10E5FC0008E0084A019B1360064B01221A71054B77
:10E60C0000225A71039B184605B05DF804FB00BF4D
:10E61C009C6D0200542A002008B5074B1B79002B77
:10E62C0003D10649BD2002F08BF9FFF7A3FF0120AF
:10E63C00FFF788FF00BF08BD542A00209C6D020024
:10E64C0008B50D4B1B79002B03D10C49F72002F0B8
:10E65C0077F90220FFF73AFF4FF48270FFF74DFF76
:10E66C000C20FFF73DFF00BFFFF776FF0346002BA2
:10E67C00FAD100BF00BF08BD542A00209C6D0200D7
:10E68C0008B54FF48070FFF74CFF0346002B14D0F5
:10E69C004FF48070FFF731FF0120FFF717FF114B8C
:10E6AC005B7983F00103DBB2002B06D00D4B01220A
:10E6BC005A710C4B1B68002098474FF48270FFF77F
:10E6CC0030FF0346002B0AD04FF48270FFF715FF82
:10E6DC000220FFF7FBFE034B1B680120984700BF8D
:10E6EC0008BD00BF542A002082B003468DF80730C5
:10E6FC009DF90730002B0CDB9DF8073003F01F024F
:10E70C0005499DF907305B09012000FA02F241F836
:10E71C00232000BF02B0704700E100E082B0034646
:10E72C0000918DF807309DF90730002B0ADB009B18
:10E73C00DAB20C499DF907305201D2B20B4483F87E
:10E74C0000230BE0009BDAB207499DF8073003F079
:10E75C000F03043B5201D2B20B441A7600BF02B035
:10E76C00704700BF00E100E000ED00E082B00190D6
:10E77C00019B1B0B5BB2184602B0704700B583B00F
:10E78C0003460A468DF8073013468DF806309DF87F
:10E79C000630012B03D99DF80630032B0BD99DF8BD
:10E7AC000630042B03D99DF80630072B03D90849F2
:10E7BC006B2002F0C5F89DF806209DF90730114634
:10E7CC001846FFF7ABFF00BF03B05DF804FB00BFBA
:10E7DC00E46D020000B583B003468DF807309DF957
:10E7EC0007301846FFF780FF00BF03B05DF804FB4D
:10E7FC0000B583B00346ADF80630BDF806301846B8
:10E80C0000F026F803461B68012B0CBF01230023E4
:10E81C00DBB2184603B05DF804FB00B585B00346C7
:10E82C00ADF80630BDF80630184600F011F8034676
:10E83C001A4600231360BDF80630184600F008F89D
:10E84C0003461B680393039B00BF05B05DF804FBF4
:10E85C0082B00346ADF80630BDF8063003F18043B4
:10E86C0003F5C043184602B07047000082B0019017
:10E87C00034A019BC2F8043300BF02B0704700BFCB
:10E88C000060004082B00190034BD3F80423019B3D
:10E89C001340184602B070470060004082B00190EF
:10E8AC00084A019B03F5A27352F82330054943F043
:10E8BC000102019B03F5A27341F8232000BF02B0B3
:10E8CC00704700BF0060004084B003900291134673
:10E8DC008DF80730144A039B03F5A27352F82330CA
:10E8EC00114923F4473323F44073039A02F5A272BF
:10E8FC0041F822300C4A039B03F5A27352F82320F3
:10E90C00029B1B0203F4F8519DF807301B0403F41F
:10E91C0040330B4304491A43039B03F5A27341F89C
:10E92C00232000BF04B070470060004082B001900B
:10E93C00054A019B03F5A27352F823301B0A03F01E
:10E94C001F03184602B070470060004082B001906F
:10E95C00064A019B03F5A27352F823301B0C03F0FB
:10E96C000303DBB2184602B0704700BF00600040E2
:10E97C0000B583B00190019B1B68184600F015F997
:10E98C000346002B04D105494FF4F67001F0D8FF73
:10E99C004FF0A043184603B05DF804FB146E020060
:10E9AC0000B585B00190084611461A4603468DF80D
:10E9BC0003300B468DF8023013468DF8013001AB55
:10E9CC001846FFF7D5FF03909DF803209DF8023001
:10E9DC005B001A439DF801309B001A439DF81830D8
:10E9EC001B0242EA03019DF81C301B04019A1943D7
:10E9FC00039B02F5E07243F8221000BF05B05DF8EE
:10EA0C0004FB00B585B003900B468DF80B309DF8D8
:10EA1C000B30002201920022009200220021039868
:10EA2C00FFF7BEFF00BF05B05DF804FB00B585B075
:10EA3C00019001AB1846FFF79BFF0390019A039BD3
:10EA4C0002F5E07253F8223023F002030293019A8C
:10EA5C00039B02F5E072029943F8221000BF05B047
:10EA6C005DF804FB00B585B001900B468DF80330C2
:10EA7C0001AB1846FFF77CFF0390019A039B02F54C
:10EA8C00E07253F82230019A23F44031039B02F5D3
:10EA9C00E07243F82210019A039B02F5E07253F8DE
:10EAAC0022309DF8032012041146019A1943039B4E
:10EABC0002F5E07243F8221000BF05B05DF804FBCC
:10EACC0000B585B0019001AB1846FFF751FF0390DC
